{
	"data": {
		"bytecode": {
			"linkReferences": {},
			"object": "60806040526000600960006101000a81548160ff021916908315150217905550600a8055600a600b5567011c37937e080000600c553480156200004157600080fd5b506040518060400160405280600581526020017f4e465469780000000000000000000000000000000000000000000000000000008152506040518060400160405280600481526020017f4e465458000000000000000000000000000000000000000000000000000000008152508160009080519060200190620000c692919062000309565b508060019080519060200190620000df92919062000309565b50505062000102620000f66200014b60201b60201c565b6200015360201b60201c565b6200011960086200021960201b6200158f1760201c565b620001456200013460086200022f60201b620015a51760201c565b6200023d60201b620015b31760201c565b62000456565b600033905090565b6000600760009054906101000a900473ffffffffffffffffffffffffffffffffffffffff16905081600760006101000a81548173ffffffffffffffffffffffffffffffffffffffff021916908373ffffffffffffffffffffffffffffffffffffffff1602179055508173ffffffffffffffffffffffffffffffffffffffff168173ffffffffffffffffffffffffffffffffffffffff167f8be0079c531659141344cd1fd0a4f28419497f9722a3daafe3b4186f6b6457e060405160405180910390a35050565b6001816000016000828254019250508190555050565b600081600001549050919050565b620002dd81604051602401620002549190620003ca565b6040516020818303038152906040527ff5b1bba9000000000000000000000000000000000000000000000000000000007bffffffffffffffffffffffffffffffffffffffffffffffffffffffff19166020820180517bffffffffffffffffffffffffffffffffffffffffffffffffffffffff8381831617835250505050620002e060201b60201c565b50565b60008151905060006a636f6e736f6c652e6c6f679050602083016000808483855afa5050505050565b8280546200031790620003f1565b90600052602060002090601f0160209004810192826200033b576000855562000387565b82601f106200035657805160ff191683800117855562000387565b8280016001018555821562000387579182015b828111156200038657825182559160200191906001019062000369565b5b5090506200039691906200039a565b5090565b5b80821115620003b55760008160009055506001016200039b565b5090565b620003c481620003e7565b82525050565b6000602082019050620003e16000830184620003b9565b92915050565b6000819050919050565b600060028204905060018216806200040a57607f821691505b6020821081141562000421576200042062000427565b5b50919050565b7f4e487b7100000000000000000000000000000000000000000000000000000000600052602260045260246000fd5b61400c80620004666000396000f3fe6080604052600436106101c25760003560e01c806370a08231116100f7578063b88d4fde11610095578063e985e9c511610064578063e985e9c514610635578063eb8d244414610672578063ee55efee1461069d578063f2fde38b146106b4576101c2565b8063b88d4fde1461057b578063c87b56dd146105a4578063d9a59e33146105e1578063dd11247e1461060a576101c2565b806382ac0bb8116100d157806382ac0bb8146104bf5780638da5cb5b146104fc57806395d89b4114610527578063a22cb46514610552576101c2565b806370a082311461042e578063715018a61461046b57806380f2abe314610482576101c2565b80631acc9b62116101645780633d721ecd1161013e5780633d721ecd1461037257806342842e0e1461039d5780636352211e146103c65780636817c76c14610403576101c2565b80631acc9b62146102e157806323b872dd1461031e5780633cfa7e0114610347576101c2565b8063095ea7b3116101a0578063095ea7b31461026c5780631249c58b1461029557806314558fab1461029f578063167ff46f146102ca576101c2565b806301ffc9a7146101c757806306fdde0314610204578063081812fc1461022f575b600080fd5b3480156101d357600080fd5b506101ee60048036038101906101e99190612961565b6106dd565b6040516101fb9190612fbf565b60405180910390f35b34801561021057600080fd5b506102196107bf565b6040516102269190612fda565b60405180910390f35b34801561023b57600080fd5b50610256600480360381019061025191906129bb565b610851565b6040516102639190612f58565b60405180910390f35b34801561027857600080fd5b50610293600480360381019061028e9190612921565b6108d6565b005b61029d6109ee565b005b3480156102ab57600080fd5b506102b4610be0565b6040516102c1919061329c565b60405180910390f35b3480156102d657600080fd5b506102df610bea565b005b3480156102ed57600080fd5b506103086004803603810190610303919061279e565b610c83565b6040516103159190612fbf565b60405180910390f35b34801561032a57600080fd5b506103456004803603810190610340919061280b565b610ca3565b005b34801561035357600080fd5b5061035c610d03565b604051610369919061329c565b60405180910390f35b34801561037e57600080fd5b50610387610d09565b604051610394919061329c565b60405180910390f35b3480156103a957600080fd5b506103c460048036038101906103bf919061280b565b610d13565b005b3480156103d257600080fd5b506103ed60048036038101906103e891906129bb565b610d33565b6040516103fa9190612f58565b60405180910390f35b34801561040f57600080fd5b50610418610de5565b604051610425919061329c565b60405180910390f35b34801561043a57600080fd5b506104556004803603810190610450919061279e565b610deb565b604051610462919061329c565b60405180910390f35b34801561047757600080fd5b50610480610ea3565b005b34801561048e57600080fd5b506104a960048036038101906104a4919061279e565b610f2b565b6040516104b69190612fbf565b60405180910390f35b3480156104cb57600080fd5b506104e660048036038101906104e19190612921565b610f79565b6040516104f3919061329c565b60405180910390f35b34801561050857600080fd5b50610511610faa565b60405161051e9190612f58565b60405180910390f35b34801561053357600080fd5b5061053c610fd4565b6040516105499190612fda565b60405180910390f35b34801561055e57600080fd5b50610579600480360381019061057491906128e1565b611066565b005b34801561058757600080fd5b506105a2600480360381019061059d919061285e565b61107c565b005b3480156105b057600080fd5b506105cb60048036038101906105c691906129bb565b6110de565b6040516105d89190612fda565b60405180910390f35b3480156105ed57600080fd5b506106086004803603810190610603919061279e565b611230565b005b34801561061657600080fd5b5061061f611351565b60405161062c919061329c565b60405180910390f35b34801561064157600080fd5b5061065c600480360381019061065791906127cb565b611357565b6040516106699190612fbf565b60405180910390f35b34801561067e57600080fd5b506106876113eb565b6040516106949190612fbf565b60405180910390f35b3480156106a957600080fd5b506106b26113fe565b005b3480156106c057600080fd5b506106db60048036038101906106d6919061279e565b611497565b005b60007f80ac58cd000000000000000000000000000000000000000000000000000000007bffffffffffffffffffffffffffffffffffffffffffffffffffffffff1916827bffffffffffffffffffffffffffffffffffffffffffffffffffffffff191614806107a857507f5b5e139f000000000000000000000000000000000000000000000000000000007bffffffffffffffffffffffffffffffffffffffffffffffffffffffff1916827bffffffffffffffffffffffffffffffffffffffffffffffffffffffff1916145b806107b857506107b78261164c565b5b9050919050565b6060600080546107ce9061351b565b80601f01602080910402602001604051908101604052809291908181526020018280546107fa9061351b565b80156108475780601f1061081c57610100808354040283529160200191610847565b820191906000526020600020905b81548152906001019060200180831161082a57829003601f168201915b5050505050905090565b600061085c826116b6565b61089b576040517f08c379a0000000000000000000000000000000000000000000000000000000008152600401610892906131fc565b60405180910390fd5b6004600083815260200190815260200160002060009054906101000a900473ffffffffffffffffffffffffffffffffffffffff169050919050565b60006108e182610d33565b90508073ffffffffffffffffffffffffffffffffffffffff168373ffffffffffffffffffffffffffffffffffffffff161415610952576040517f08c379a00000000000000000000000000000000000000000000000000000000081526004016109499061325c565b60405180910390fd5b8073ffffffffffffffffffffffffffffffffffffffff16610971611722565b73ffffffffffffffffffffffffffffffffffffffff1614806109a0575061099f8161099a611722565b611357565b5b6109df576040517f08c379a00000000000000000000000000000000000000000000000000000000081526004016109d69061313c565b60405180910390fd5b6109e9838361172a565b505050565b6000600b5411610a33576040517f08c379a0000000000000000000000000000000000000000000000000000000008152600401610a2a906130fc565b60405180910390fd5b600c54341015610a78576040517f08c379a0000000000000000000000000000000000000000000000000000000008152600401610a6f9061301c565b60405180910390fd5b600960009054906101000a900460ff16610ac7576040517f08c379a0000000000000000000000000000000000000000000000000000000008152600401610abe90612ffc565b60405180910390fd5b6000610b02610ade610ad960086115a5565b6117e3565b604051602001610aee9190612f15565b604051602081830303815290604052611944565b9050600081604051602001610b179190612eb0565b6040516020818303038152906040529050610b3b33610b3660086115a5565b611adc565b610b4e610b4860086115a5565b82611afa565b600d60003373ffffffffffffffffffffffffffffffffffffffff1673ffffffffffffffffffffffffffffffffffffffff168152602001908152602001600020610b9760086115a5565b9080600181540180825580915050600190039060005260206000200160009091909190915055610bc7600861158f565b6001600b54610bd69190613431565b600b819055505050565b6000600a54905090565b610bf2611722565b73ffffffffffffffffffffffffffffffffffffffff16610c10610faa565b73ffffffffffffffffffffffffffffffffffffffff1614610c66576040517f08c379a0000000000000000000000000000000000000000000000000000000008152600401610c5d9061321c565b60405180910390fd5b6001600960006101000a81548160ff021916908315150217905550565b600e6020528060005260406000206000915054906101000a900460ff1681565b610cb4610cae611722565b82611b6e565b610cf3576040517f08c379a0000000000000000000000000000000000000000000000000000000008152600401610cea9061327c565b60405180910390fd5b610cfe838383611c4c565b505050565b600b5481565b6000600b54905090565b610d2e8383836040518060200160405280600081525061107c565b505050565b6000806002600084815260200190815260200160002060009054906101000a900473ffffffffffffffffffffffffffffffffffffffff169050600073ffffffffffffffffffffffffffffffffffffffff168173ffffffffffffffffffffffffffffffffffffffff161415610ddc576040517f08c379a0000000000000000000000000000000000000000000000000000000008152600401610dd39061317c565b60405180910390fd5b80915050919050565b600c5481565b60008073ffffffffffffffffffffffffffffffffffffffff168273ffffffffffffffffffffffffffffffffffffffff161415610e5c576040517f08c379a0000000000000000000000000000000000000000000000000000000008152600401610e539061315c565b60405180910390fd5b600360008373ffffffffffffffffffffffffffffffffffffffff1673ffffffffffffffffffffffffffffffffffffffff168152602001908152602001600020549050919050565b610eab611722565b73ffffffffffffffffffffffffffffffffffffffff16610ec9610faa565b73ffffffffffffffffffffffffffffffffffffffff1614610f1f576040517f08c379a0000000000000000000000000000000000000000000000000000000008152600401610f169061321c565b60405180910390fd5b610f296000611eb3565b565b600080600d60008473ffffffffffffffffffffffffffffffffffffffff1673ffffffffffffffffffffffffffffffffffffffff16815260200190815260200160002080549050119050919050565b600d6020528160005260406000208181548110610f9557600080fd5b90600052602060002001600091509150505481565b6000600760009054906101000a900473ffffffffffffffffffffffffffffffffffffffff16905090565b606060018054610fe39061351b565b80601f016020809104026020016040519081016040528092919081815260200182805461100f9061351b565b801561105c5780601f106110315761010080835404028352916020019161105c565b820191906000526020600020905b81548152906001019060200180831161103f57829003601f168201915b5050505050905090565b611078611071611722565b8383611f79565b5050565b61108d611087611722565b83611b6e565b6110cc576040517f08c379a00000000000000000000000000000000000000000000000000000000081526004016110c39061327c565b60405180910390fd5b6110d8848484846120e6565b50505050565b60606110e9826116b6565b611128576040517f08c379a000000000000000000000000000000000000000000000000000000000815260040161111f906131dc565b60405180910390fd5b60006006600084815260200190815260200160002080546111489061351b565b80601f01602080910402602001604051908101604052809291908181526020018280546111749061351b565b80156111c15780601f10611196576101008083540402835291602001916111c1565b820191906000526020600020905b8154815290600101906020018083116111a457829003601f168201915b5050505050905060006111d2612142565b90506000815114156111e857819250505061122b565b60008251111561121d578082604051602001611205929190612e8c565b6040516020818303038152906040529250505061122b565b61122684612159565b925050505b919050565b6001600e60008373ffffffffffffffffffffffffffffffffffffffff1673ffffffffffffffffffffffffffffffffffffffff16815260200190815260200160002060006101000a81548160ff0219169083151502179055506000600d60008373ffffffffffffffffffffffffffffffffffffffff1673ffffffffffffffffffffffffffffffffffffffff1681526020019081526020016000206000815481106112dc576112db613685565b5b90600052602060002001549050600061131b6112f7836117e3565b6040516020016113079190612ed2565b604051602081830303815290604052611944565b90506000816040516020016113309190612eb0565b604051602081830303815290604052905061134b8382611afa565b50505050565b600a5481565b6000600560008473ffffffffffffffffffffffffffffffffffffffff1673ffffffffffffffffffffffffffffffffffffffff16815260200190815260200160002060008373ffffffffffffffffffffffffffffffffffffffff1673ffffffffffffffffffffffffffffffffffffffff16815260200190815260200160002060009054906101000a900460ff16905092915050565b600960009054906101000a900460ff1681565b611406611722565b73ffffffffffffffffffffffffffffffffffffffff16611424610faa565b73ffffffffffffffffffffffffffffffffffffffff161461147a576040517f08c379a00000000000000000000000000000000000000000000000000000000081526004016114719061321c565b60405180910390fd5b6000600960006101000a81548160ff021916908315150217905550565b61149f611722565b73ffffffffffffffffffffffffffffffffffffffff166114bd610faa565b73ffffffffffffffffffffffffffffffffffffffff1614611513576040517f08c379a000000000000000000000000000000000000000000000000000000000815260040161150a9061321c565b60405180910390fd5b600073ffffffffffffffffffffffffffffffffffffffff168173ffffffffffffffffffffffffffffffffffffffff161415611583576040517f08c379a000000000000000000000000000000000000000000000000000000000815260040161157a9061305c565b60405180910390fd5b61158c81611eb3565b50565b6001816000016000828254019250508190555050565b600081600001549050919050565b611649816040516024016115c7919061329c565b6040516020818303038152906040527ff5b1bba9000000000000000000000000000000000000000000000000000000007bffffffffffffffffffffffffffffffffffffffffffffffffffffffff19166020820180517bffffffffffffffffffffffffffffffffffffffffffffffffffffffff8381831617835250505050612200565b50565b60007f01ffc9a7000000000000000000000000000000000000000000000000000000007bffffffffffffffffffffffffffffffffffffffffffffffffffffffff1916827bffffffffffffffffffffffffffffffffffffffffffffffffffffffff1916149050919050565b60008073ffffffffffffffffffffffffffffffffffffffff166002600084815260200190815260200160002060009054906101000a900473ffffffffffffffffffffffffffffffffffffffff1673ffffffffffffffffffffffffffffffffffffffff1614159050919050565b600033905090565b816004600083815260200190815260200160002060006101000a81548173ffffffffffffffffffffffffffffffffffffffff021916908373ffffffffffffffffffffffffffffffffffffffff160217905550808273ffffffffffffffffffffffffffffffffffffffff1661179d83610d33565b73ffffffffffffffffffffffffffffffffffffffff167f8c5be1e5ebec7d5bd14f71427d1e84f3dd0314c0f7b2291e5b200ac8c7c3b92560405160405180910390a45050565b6060600082141561182b576040518060400160405280600181526020017f3000000000000000000000000000000000000000000000000000000000000000815250905061193f565b600082905060005b6000821461185d5780806118469061357e565b915050600a8261185691906133a6565b9150611833565b60008167ffffffffffffffff811115611879576118786136b4565b5b6040519080825280601f01601f1916602001820160405280156118ab5781602001600182028036833780820191505090505b5090505b60008514611938576001826118c49190613431565b9150600a856118d391906135c7565b60306118df9190613350565b60f81b8183815181106118f5576118f4613685565b5b60200101907effffffffffffffffffffffffffffffffffffffffffffffffffffffffffffff1916908160001a905350600a8561193191906133a6565b94506118af565b8093505050505b919050565b6060600082519050600081141561196d5760405180602001604052806000815250915050611ad7565b6000600360028361197e9190613350565b61198891906133a6565b600461199491906133d7565b905060006020826119a59190613350565b67ffffffffffffffff8111156119be576119bd6136b4565b5b6040519080825280601f01601f1916602001820160405280156119f05781602001600182028036833780820191505090505b5090506000604051806060016040528060408152602001613f97604091399050600181016020830160005b86811015611a945760038101905062ffffff818a015116603f8160121c168401518060081b905060ff603f83600c1c1686015116810190508060081b905060ff603f8360061c1686015116810190508060081b905060ff603f831686015116810190508060e01b90508084526004840193505050611a1b565b506003860660018114611aae5760028114611abe57611ac9565b613d3d60f01b6002830352611ac9565b603d60f81b60018303525b508484525050819450505050505b919050565b611af6828260405180602001604052806000815250612229565b5050565b611b03826116b6565b611b42576040517f08c379a0000000000000000000000000000000000000000000000000000000008152600401611b399061319c565b60405180910390fd5b80600660008481526020019081526020016000209080519060200190611b69929190612622565b505050565b6000611b79826116b6565b611bb8576040517f08c379a0000000000000000000000000000000000000000000000000000000008152600401611baf9061311c565b60405180910390fd5b6000611bc383610d33565b90508073ffffffffffffffffffffffffffffffffffffffff168473ffffffffffffffffffffffffffffffffffffffff161480611c3257508373ffffffffffffffffffffffffffffffffffffffff16611c1a84610851565b73ffffffffffffffffffffffffffffffffffffffff16145b80611c435750611c428185611357565b5b91505092915050565b8273ffffffffffffffffffffffffffffffffffffffff16611c6c82610d33565b73ffffffffffffffffffffffffffffffffffffffff1614611cc2576040517f08c379a0000000000000000000000000000000000000000000000000000000008152600401611cb99061307c565b60405180910390fd5b600073ffffffffffffffffffffffffffffffffffffffff168273ffffffffffffffffffffffffffffffffffffffff161415611d32576040517f08c379a0000000000000000000000000000000000000000000000000000000008152600401611d29906130bc565b60405180910390fd5b611d3d838383612284565b611d4860008261172a565b6001600360008573ffffffffffffffffffffffffffffffffffffffff1673ffffffffffffffffffffffffffffffffffffffff1681526020019081526020016000206000828254611d989190613431565b925050819055506001600360008473ffffffffffffffffffffffffffffffffffffffff1673ffffffffffffffffffffffffffffffffffffffff1681526020019081526020016000206000828254611def9190613350565b92505081905550816002600083815260200190815260200160002060006101000a81548173ffffffffffffffffffffffffffffffffffffffff021916908373ffffffffffffffffffffffffffffffffffffffff160217905550808273ffffffffffffffffffffffffffffffffffffffff168473ffffffffffffffffffffffffffffffffffffffff167fddf252ad1be2c89b69c2b068fc378daa952ba7f163c4a11628f55a4df523b3ef60405160405180910390a4611eae838383612289565b505050565b6000600760009054906101000a900473ffffffffffffffffffffffffffffffffffffffff16905081600760006101000a81548173ffffffffffffffffffffffffffffffffffffffff021916908373ffffffffffffffffffffffffffffffffffffffff1602179055508173ffffffffffffffffffffffffffffffffffffffff168173ffffffffffffffffffffffffffffffffffffffff167f8be0079c531659141344cd1fd0a4f28419497f9722a3daafe3b4186f6b6457e060405160405180910390a35050565b8173ffffffffffffffffffffffffffffffffffffffff168373ffffffffffffffffffffffffffffffffffffffff161415611fe8576040517f08c379a0000000000000000000000000000000000000000000000000000000008152600401611fdf906130dc565b60405180910390fd5b80600560008573ffffffffffffffffffffffffffffffffffffffff1673ffffffffffffffffffffffffffffffffffffffff16815260200190815260200160002060008473ffffffffffffffffffffffffffffffffffffffff1673ffffffffffffffffffffffffffffffffffffffff16815260200190815260200160002060006101000a81548160ff0219169083151502179055508173ffffffffffffffffffffffffffffffffffffffff168373ffffffffffffffffffffffffffffffffffffffff167f17307eab39ab6107e8899845ad3d59bd9653f200f220920489ca2b5937696c31836040516120d99190612fbf565b60405180910390a3505050565b6120f1848484611c4c565b6120fd8484848461228e565b61213c576040517f08c379a00000000000000000000000000000000000000000000000000000000081526004016121339061303c565b60405180910390fd5b50505050565b606060405180602001604052806000815250905090565b6060612164826116b6565b6121a3576040517f08c379a000000000000000000000000000000000000000000000000000000000815260040161219a9061323c565b60405180910390fd5b60006121ad612142565b905060008151116121cd57604051806020016040528060008152506121f8565b806121d7846117e3565b6040516020016121e8929190612e8c565b6040516020818303038152906040525b915050919050565b60008151905060006a636f6e736f6c652e6c6f679050602083016000808483855afa5050505050565b6122338383612425565b612240600084848461228e565b61227f576040517f08c379a00000000000000000000000000000000000000000000000000000000081526004016122769061303c565b60405180910390fd5b505050565b505050565b505050565b60006122af8473ffffffffffffffffffffffffffffffffffffffff166125ff565b15612418578373ffffffffffffffffffffffffffffffffffffffff1663150b7a026122d8611722565b8786866040518563ffffffff1660e01b81526004016122fa9493929190612f73565b602060405180830381600087803b15801561231457600080fd5b505af192505050801561234557506040513d601f19601f82011682018060405250810190612342919061298e565b60015b6123c8573d8060008114612375576040519150601f19603f3d011682016040523d82523d6000602084013e61237a565b606091505b506000815114156123c0576040517f08c379a00000000000000000000000000000000000000000000000000000000081526004016123b79061303c565b60405180910390fd5b805181602001fd5b63150b7a0260e01b7bffffffffffffffffffffffffffffffffffffffffffffffffffffffff1916817bffffffffffffffffffffffffffffffffffffffffffffffffffffffff19161491505061241d565b600190505b949350505050565b600073ffffffffffffffffffffffffffffffffffffffff168273ffffffffffffffffffffffffffffffffffffffff161415612495576040517f08c379a000000000000000000000000000000000000000000000000000000000815260040161248c906131bc565b60405180910390fd5b61249e816116b6565b156124de576040517f08c379a00000000000000000000000000000000000000000000000000000000081526004016124d59061309c565b60405180910390fd5b6124ea60008383612284565b6001600360008473ffffffffffffffffffffffffffffffffffffffff1673ffffffffffffffffffffffffffffffffffffffff168152602001908152602001600020600082825461253a9190613350565b92505081905550816002600083815260200190815260200160002060006101000a81548173ffffffffffffffffffffffffffffffffffffffff021916908373ffffffffffffffffffffffffffffffffffffffff160217905550808273ffffffffffffffffffffffffffffffffffffffff16600073ffffffffffffffffffffffffffffffffffffffff167fddf252ad1be2c89b69c2b068fc378daa952ba7f163c4a11628f55a4df523b3ef60405160405180910390a46125fb60008383612289565b5050565b6000808273ffffffffffffffffffffffffffffffffffffffff163b119050919050565b82805461262e9061351b565b90600052602060002090601f0160209004810192826126505760008555612697565b82601f1061266957805160ff1916838001178555612697565b82800160010185558215612697579182015b8281111561269657825182559160200191906001019061267b565b5b5090506126a491906126a8565b5090565b5b808211156126c15760008160009055506001016126a9565b5090565b60006126d86126d3846132dc565b6132b7565b9050828152602081018484840111156126f4576126f36136e8565b5b6126ff8482856134d9565b509392505050565b60008135905061271681613f3a565b92915050565b60008135905061272b81613f51565b92915050565b60008135905061274081613f68565b92915050565b60008151905061275581613f68565b92915050565b600082601f8301126127705761276f6136e3565b5b81356127808482602086016126c5565b91505092915050565b60008135905061279881613f7f565b92915050565b6000602082840312156127b4576127b36136f2565b5b60006127c284828501612707565b91505092915050565b600080604083850312156127e2576127e16136f2565b5b60006127f085828601612707565b925050602061280185828601612707565b9150509250929050565b600080600060608486031215612824576128236136f2565b5b600061283286828701612707565b935050602061284386828701612707565b925050604061285486828701612789565b9150509250925092565b60008060008060808587031215612878576128776136f2565b5b600061288687828801612707565b945050602061289787828801612707565b93505060406128a887828801612789565b925050606085013567ffffffffffffffff8111156128c9576128c86136ed565b5b6128d58782880161275b565b91505092959194509250565b600080604083850312156128f8576128f76136f2565b5b600061290685828601612707565b92505060206129178582860161271c565b9150509250929050565b60008060408385031215612938576129376136f2565b5b600061294685828601612707565b925050602061295785828601612789565b9150509250929050565b600060208284031215612977576129766136f2565b5b600061298584828501612731565b91505092915050565b6000602082840312156129a4576129a36136f2565b5b60006129b284828501612746565b91505092915050565b6000602082840312156129d1576129d06136f2565b5b60006129df84828501612789565b91505092915050565b6129f181613465565b82525050565b612a0081613477565b82525050565b6000612a118261330d565b612a1b8185613323565b9350612a2b8185602086016134e8565b612a34816136f7565b840191505092915050565b6000612a4a82613318565b612a548185613334565b9350612a648185602086016134e8565b612a6d816136f7565b840191505092915050565b6000612a8382613318565b612a8d8185613345565b9350612a9d8185602086016134e8565b80840191505092915050565b6000612ab6601883613334565b9150612ac182613708565b602082019050919050565b6000612ad9600f83613334565b9150612ae482613731565b602082019050919050565b6000612afc603283613334565b9150612b078261375a565b604082019050919050565b6000612b1f602683613334565b9150612b2a826137a9565b604082019050919050565b6000612b42604283613345565b9150612b4d826137f8565b604282019050919050565b6000612b65602583613334565b9150612b708261386d565b604082019050919050565b6000612b88601c83613334565b9150612b93826138bc565b602082019050919050565b6000612bab606d83613345565b9150612bb6826138e5565b606d82019050919050565b6000612bce602483613334565b9150612bd982613980565b604082019050919050565b6000612bf1601983613334565b9150612bfc826139cf565b602082019050919050565b6000612c14601283613334565b9150612c1f826139f8565b602082019050919050565b6000612c37602c83613334565b9150612c4282613a21565b604082019050919050565b6000612c5a603883613334565b9150612c6582613a70565b604082019050919050565b6000612c7d602a83613334565b9150612c8882613abf565b604082019050919050565b6000612ca0602983613334565b9150612cab82613b0e565b604082019050919050565b6000612cc3602e83613334565b9150612cce82613b5d565b604082019050919050565b6000612ce6602083613334565b9150612cf182613bac565b602082019050919050565b6000612d09603183613334565b9150612d1482613bd5565b604082019050919050565b6000612d2c602c83613334565b9150612d3782613c24565b604082019050919050565b6000612d4f604283613345565b9150612d5a82613c73565b604282019050919050565b6000612d72602083613334565b9150612d7d82613ce8565b602082019050919050565b6000612d95606e83613345565b9150612da082613d11565b606e82019050919050565b6000612db8602f83613334565b9150612dc382613dac565b604082019050919050565b6000612ddb602183613334565b9150612de682613dfb565b604082019050919050565b6000612dfe601d83613345565b9150612e0982613e4a565b601d82019050919050565b6000612e21603183613334565b9150612e2c82613e73565b604082019050919050565b6000612e44603483613345565b9150612e4f82613ec2565b603482019050919050565b6000612e67601283613345565b9150612e7282613f11565b601282019050919050565b612e86816134cf565b82525050565b6000612e988285612a78565b9150612ea48284612a78565b91508190509392505050565b6000612ebb82612df1565b9150612ec78284612a78565b915081905092915050565b6000612edd82612e5a565b9150612ee98284612a78565b9150612ef482612e37565b9150612eff82612b9e565b9150612f0a82612b35565b915081905092915050565b6000612f2082612e5a565b9150612f2c8284612a78565b9150612f3782612e37565b9150612f4282612d88565b9150612f4d82612d42565b915081905092915050565b6000602082019050612f6d60008301846129e8565b92915050565b6000608082019050612f8860008301876129e8565b612f9560208301866129e8565b612fa26040830185612e7d565b8181036060830152612fb48184612a06565b905095945050505050565b6000602082019050612fd460008301846129f7565b92915050565b60006020820190508181036000830152612ff48184612a3f565b905092915050565b6000602082019050818103600083015261301581612aa9565b9050919050565b6000602082019050818103600083015261303581612acc565b9050919050565b6000602082019050818103600083015261305581612aef565b9050919050565b6000602082019050818103600083015261307581612b12565b9050919050565b6000602082019050818103600083015261309581612b58565b9050919050565b600060208201905081810360008301526130b581612b7b565b9050919050565b600060208201905081810360008301526130d581612bc1565b9050919050565b600060208201905081810360008301526130f581612be4565b9050919050565b6000602082019050818103600083015261311581612c07565b9050919050565b6000602082019050818103600083015261313581612c2a565b9050919050565b6000602082019050818103600083015261315581612c4d565b9050919050565b6000602082019050818103600083015261317581612c70565b9050919050565b6000602082019050818103600083015261319581612c93565b9050919050565b600060208201905081810360008301526131b581612cb6565b9050919050565b600060208201905081810360008301526131d581612cd9565b9050919050565b600060208201905081810360008301526131f581612cfc565b9050919050565b6000602082019050818103600083015261321581612d1f565b9050919050565b6000602082019050818103600083015261323581612d65565b9050919050565b6000602082019050818103600083015261325581612dab565b9050919050565b6000602082019050818103600083015261327581612dce565b9050919050565b6000602082019050818103600083015261329581612e14565b9050919050565b60006020820190506132b16000830184612e7d565b92915050565b60006132c16132d2565b90506132cd828261354d565b919050565b6000604051905090565b600067ffffffffffffffff8211156132f7576132f66136b4565b5b613300826136f7565b9050602081019050919050565b600081519050919050565b600081519050919050565b600082825260208201905092915050565b600082825260208201905092915050565b600081905092915050565b600061335b826134cf565b9150613366836134cf565b9250827fffffffffffffffffffffffffffffffffffffffffffffffffffffffffffffffff0382111561339b5761339a6135f8565b5b828201905092915050565b60006133b1826134cf565b91506133bc836134cf565b9250826133cc576133cb613627565b5b828204905092915050565b60006133e2826134cf565b91506133ed836134cf565b9250817fffffffffffffffffffffffffffffffffffffffffffffffffffffffffffffffff0483118215151615613426576134256135f8565b5b828202905092915050565b600061343c826134cf565b9150613447836134cf565b92508282101561345a576134596135f8565b5b828203905092915050565b6000613470826134af565b9050919050565b60008115159050919050565b60007fffffffff0000000000000000000000000000000000000000000000000000000082169050919050565b600073ffffffffffffffffffffffffffffffffffffffff82169050919050565b6000819050919050565b82818337600083830152505050565b60005b838110156135065780820151818401526020810190506134eb565b83811115613515576000848401525b50505050565b6000600282049050600182168061353357607f821691505b6020821081141561354757613546613656565b5b50919050565b613556826136f7565b810181811067ffffffffffffffff82111715613575576135746136b4565b5b80604052505050565b6000613589826134cf565b91507fffffffffffffffffffffffffffffffffffffffffffffffffffffffffffffffff8214156135bc576135bb6135f8565b5b600182019050919050565b60006135d2826134cf565b91506135dd836134cf565b9250826135ed576135ec613627565b5b828206905092915050565b7f4e487b7100000000000000000000000000000000000000000000000000000000600052601160045260246000fd5b7f4e487b7100000000000000000000000000000000000000000000000000000000600052601260045260246000fd5b7f4e487b7100000000000000000000000000000000000000000000000000000000600052602260045260246000fd5b7f4e487b7100000000000000000000000000000000000000000000000000000000600052603260045260246000fd5b7f4e487b7100000000000000000000000000000000000000000000000000000000600052604160045260246000fd5b600080fd5b600080fd5b600080fd5b600080fd5b6000601f19601f8301169050919050565b7f5469636b65747320617265206e6f74206f6e2073616c65210000000000000000600082015250565b7f4e6f7420656e6f75676820455448210000000000000000000000000000000000600082015250565b7f4552433732313a207472616e7366657220746f206e6f6e20455243373231526560008201527f63656976657220696d706c656d656e7465720000000000000000000000000000602082015250565b7f4f776e61626c653a206e6577206f776e657220697320746865207a65726f206160008201527f6464726573730000000000000000000000000000000000000000000000000000602082015250565b7f22696d616765223a2022697066733a2f2f516d54484e6b42335677754164376360008201527f4c463176567a756d5831386f7366774c4c48694c6736515333366b675850632260208201527f207d000000000000000000000000000000000000000000000000000000000000604082015250565b7f4552433732313a207472616e736665722066726f6d20696e636f72726563742060008201527f6f776e6572000000000000000000000000000000000000000000000000000000602082015250565b7f4552433732313a20746f6b656e20616c7265616479206d696e74656400000000600082015250565b7f22747261697473223a205b7b202274726169745f74797065223a20224368656360008201527f6b656420496e222c202276616c7565223a20227472756522207d2c207b20227460208201527f726169745f74797065223a2022507572636861736564222c202276616c75652260408201527f3a20227472756522207d5d2c2000000000000000000000000000000000000000606082015250565b7f4552433732313a207472616e7366657220746f20746865207a65726f2061646460008201527f7265737300000000000000000000000000000000000000000000000000000000602082015250565b7f4552433732313a20617070726f766520746f2063616c6c657200000000000000600082015250565b7f4e6f7420656e6f756768207469636b6574730000000000000000000000000000600082015250565b7f4552433732313a206f70657261746f7220717565727920666f72206e6f6e657860008201527f697374656e7420746f6b656e0000000000000000000000000000000000000000602082015250565b7f4552433732313a20617070726f76652063616c6c6572206973206e6f74206f7760008201527f6e6572206e6f7220617070726f76656420666f7220616c6c0000000000000000602082015250565b7f4552433732313a2062616c616e636520717565727920666f7220746865207a6560008201527f726f206164647265737300000000000000000000000000000000000000000000602082015250565b7f4552433732313a206f776e657220717565727920666f72206e6f6e657869737460008201527f656e7420746f6b656e0000000000000000000000000000000000000000000000602082015250565b7f45524337323155524953746f726167653a2055524920736574206f66206e6f6e60008201527f6578697374656e7420746f6b656e000000000000000000000000000000000000602082015250565b7f4552433732313a206d696e7420746f20746865207a65726f2061646472657373600082015250565b7f45524337323155524953746f726167653a2055524920717565727920666f722060008201527f6e6f6e6578697374656e7420746f6b656e000000000000000000000000000000602082015250565b7f4552433732313a20617070726f76656420717565727920666f72206e6f6e657860008201527f697374656e7420746f6b656e0000000000000000000000000000000000000000602082015250565b7f22696d616765223a2022697066733a2f2f516d507755505148464b46765a6a6d60008201527f79743373616d435154507962326d72366d4e6f754d6338347857647946486a2260208201527f207d000000000000000000000000000000000000000000000000000000000000604082015250565b7f4f776e61626c653a2063616c6c6572206973206e6f7420746865206f776e6572600082015250565b7f22747261697473223a205b7b202274726169745f74797065223a20224368656360008201527f6b656420496e222c202276616c7565223a202266616c736522207d2c207b202260208201527f74726169745f74797065223a2022507572636861736564222c202276616c756560408201527f223a20227472756522207d5d2c20000000000000000000000000000000000000606082015250565b7f4552433732314d657461646174613a2055524920717565727920666f72206e6f60008201527f6e6578697374656e7420746f6b656e0000000000000000000000000000000000602082015250565b7f4552433732313a20617070726f76616c20746f2063757272656e74206f776e6560008201527f7200000000000000000000000000000000000000000000000000000000000000602082015250565b7f646174613a6170706c69636174696f6e2f6a736f6e3b6261736536342c000000600082015250565b7f4552433732313a207472616e736665722063616c6c6572206973206e6f74206f60008201527f776e6572206e6f7220617070726f766564000000000000000000000000000000602082015250565b7f222c20226465736372697074696f6e223a202241204e46542d706f776572656460008201527f207469636b6574696e672073797374656d222c20000000000000000000000000602082015250565b7f7b20226e616d65223a20224e4654697820230000000000000000000000000000600082015250565b613f4381613465565b8114613f4e57600080fd5b50565b613f5a81613477565b8114613f6557600080fd5b50565b613f7181613483565b8114613f7c57600080fd5b50565b613f88816134cf565b8114613f9357600080fd5b5056fe4142434445464748494a4b4c4d4e4f505152535455565758595a6162636465666768696a6b6c6d6e6f707172737475767778797a303132333435363738392b2fa26469706673582212201f2eed8fc1a7452e881166b5c5b96114c98c964061ef295cd4a6fc60ef8a8eb564736f6c63430008070033",
			"opcodes": "PUSH1 0x80 PUSH1 0x40 MSTORE PUSH1 0x0 PUSH1 0x9 PUSH1 0x0 PUSH2 0x100 EXP DUP2 SLOAD DUP2 PUSH1 0xFF MUL NOT AND SWAP1 DUP4 ISZERO ISZERO MUL OR SWAP1 SSTORE POP PUSH1 0xA DUP1 SSTORE PUSH1 0xA PUSH1 0xB SSTORE PUSH8 0x11C37937E080000 PUSH1 0xC SSTORE CALLVALUE DUP1 ISZERO PUSH3 0x41 JUMPI PUSH1 0x0 DUP1 REVERT JUMPDEST POP PUSH1 0x40 MLOAD DUP1 PUSH1 0x40 ADD PUSH1 0x40 MSTORE DUP1 PUSH1 0x5 DUP2 MSTORE PUSH1 0x20 ADD PUSH32 0x4E46546978000000000000000000000000000000000000000000000000000000 DUP2 MSTORE POP PUSH1 0x40 MLOAD DUP1 PUSH1 0x40 ADD PUSH1 0x40 MSTORE DUP1 PUSH1 0x4 DUP2 MSTORE PUSH1 0x20 ADD PUSH32 0x4E46545800000000000000000000000000000000000000000000000000000000 DUP2 MSTORE POP DUP2 PUSH1 0x0 SWAP1 DUP1 MLOAD SWAP1 PUSH1 0x20 ADD SWAP1 PUSH3 0xC6 SWAP3 SWAP2 SWAP1 PUSH3 0x309 JUMP JUMPDEST POP DUP1 PUSH1 0x1 SWAP1 DUP1 MLOAD SWAP1 PUSH1 0x20 ADD SWAP1 PUSH3 0xDF SWAP3 SWAP2 SWAP1 PUSH3 0x309 JUMP JUMPDEST POP POP POP PUSH3 0x102 PUSH3 0xF6 PUSH3 0x14B PUSH1 0x20 SHL PUSH1 0x20 SHR JUMP JUMPDEST PUSH3 0x153 PUSH1 0x20 SHL PUSH1 0x20 SHR JUMP JUMPDEST PUSH3 0x119 PUSH1 0x8 PUSH3 0x219 PUSH1 0x20 SHL PUSH3 0x158F OR PUSH1 0x20 SHR JUMP JUMPDEST PUSH3 0x145 PUSH3 0x134 PUSH1 0x8 PUSH3 0x22F PUSH1 0x20 SHL PUSH3 0x15A5 OR PUSH1 0x20 SHR JUMP JUMPDEST PUSH3 0x23D PUSH1 0x20 SHL PUSH3 0x15B3 OR PUSH1 0x20 SHR JUMP JUMPDEST PUSH3 0x456 JUMP JUMPDEST PUSH1 0x0 CALLER SWAP1 POP SWAP1 JUMP JUMPDEST PUSH1 0x0 PUSH1 0x7 PUSH1 0x0 SWAP1 SLOAD SWAP1 PUSH2 0x100 EXP SWAP1 DIV PUSH20 0xFFFFFFFFFFFFFFFFFFFFFFFFFFFFFFFFFFFFFFFF AND SWAP1 POP DUP2 PUSH1 0x7 PUSH1 0x0 PUSH2 0x100 EXP DUP2 SLOAD DUP2 PUSH20 0xFFFFFFFFFFFFFFFFFFFFFFFFFFFFFFFFFFFFFFFF MUL NOT AND SWAP1 DUP4 PUSH20 0xFFFFFFFFFFFFFFFFFFFFFFFFFFFFFFFFFFFFFFFF AND MUL OR SWAP1 SSTORE POP DUP2 PUSH20 0xFFFFFFFFFFFFFFFFFFFFFFFFFFFFFFFFFFFFFFFF AND DUP2 PUSH20 0xFFFFFFFFFFFFFFFFFFFFFFFFFFFFFFFFFFFFFFFF AND PUSH32 0x8BE0079C531659141344CD1FD0A4F28419497F9722A3DAAFE3B4186F6B6457E0 PUSH1 0x40 MLOAD PUSH1 0x40 MLOAD DUP1 SWAP2 SUB SWAP1 LOG3 POP POP JUMP JUMPDEST PUSH1 0x1 DUP2 PUSH1 0x0 ADD PUSH1 0x0 DUP3 DUP3 SLOAD ADD SWAP3 POP POP DUP2 SWAP1 SSTORE POP POP JUMP JUMPDEST PUSH1 0x0 DUP2 PUSH1 0x0 ADD SLOAD SWAP1 POP SWAP2 SWAP1 POP JUMP JUMPDEST PUSH3 0x2DD DUP2 PUSH1 0x40 MLOAD PUSH1 0x24 ADD PUSH3 0x254 SWAP2 SWAP1 PUSH3 0x3CA JUMP JUMPDEST PUSH1 0x40 MLOAD PUSH1 0x20 DUP2 DUP4 SUB SUB DUP2 MSTORE SWAP1 PUSH1 0x40 MSTORE PUSH32 0xF5B1BBA900000000000000000000000000000000000000000000000000000000 PUSH28 0xFFFFFFFFFFFFFFFFFFFFFFFFFFFFFFFFFFFFFFFFFFFFFFFFFFFFFFFF NOT AND PUSH1 0x20 DUP3 ADD DUP1 MLOAD PUSH28 0xFFFFFFFFFFFFFFFFFFFFFFFFFFFFFFFFFFFFFFFFFFFFFFFFFFFFFFFF DUP4 DUP2 DUP4 AND OR DUP4 MSTORE POP POP POP POP PUSH3 0x2E0 PUSH1 0x20 SHL PUSH1 0x20 SHR JUMP JUMPDEST POP JUMP JUMPDEST PUSH1 0x0 DUP2 MLOAD SWAP1 POP PUSH1 0x0 PUSH11 0x636F6E736F6C652E6C6F67 SWAP1 POP PUSH1 0x20 DUP4 ADD PUSH1 0x0 DUP1 DUP5 DUP4 DUP6 GAS STATICCALL POP POP POP POP POP JUMP JUMPDEST DUP3 DUP1 SLOAD PUSH3 0x317 SWAP1 PUSH3 0x3F1 JUMP JUMPDEST SWAP1 PUSH1 0x0 MSTORE PUSH1 0x20 PUSH1 0x0 KECCAK256 SWAP1 PUSH1 0x1F ADD PUSH1 0x20 SWAP1 DIV DUP2 ADD SWAP3 DUP3 PUSH3 0x33B JUMPI PUSH1 0x0 DUP6 SSTORE PUSH3 0x387 JUMP JUMPDEST DUP3 PUSH1 0x1F LT PUSH3 0x356 JUMPI DUP1 MLOAD PUSH1 0xFF NOT AND DUP4 DUP1 ADD OR DUP6 SSTORE PUSH3 0x387 JUMP JUMPDEST DUP3 DUP1 ADD PUSH1 0x1 ADD DUP6 SSTORE DUP3 ISZERO PUSH3 0x387 JUMPI SWAP2 DUP3 ADD JUMPDEST DUP3 DUP2 GT ISZERO PUSH3 0x386 JUMPI DUP3 MLOAD DUP3 SSTORE SWAP2 PUSH1 0x20 ADD SWAP2 SWAP1 PUSH1 0x1 ADD SWAP1 PUSH3 0x369 JUMP JUMPDEST JUMPDEST POP SWAP1 POP PUSH3 0x396 SWAP2 SWAP1 PUSH3 0x39A JUMP JUMPDEST POP SWAP1 JUMP JUMPDEST JUMPDEST DUP1 DUP3 GT ISZERO PUSH3 0x3B5 JUMPI PUSH1 0x0 DUP2 PUSH1 0x0 SWAP1 SSTORE POP PUSH1 0x1 ADD PUSH3 0x39B JUMP JUMPDEST POP SWAP1 JUMP JUMPDEST PUSH3 0x3C4 DUP2 PUSH3 0x3E7 JUMP JUMPDEST DUP3 MSTORE POP POP JUMP JUMPDEST PUSH1 0x0 PUSH1 0x20 DUP3 ADD SWAP1 POP PUSH3 0x3E1 PUSH1 0x0 DUP4 ADD DUP5 PUSH3 0x3B9 JUMP JUMPDEST SWAP3 SWAP2 POP POP JUMP JUMPDEST PUSH1 0x0 DUP2 SWAP1 POP SWAP2 SWAP1 POP JUMP JUMPDEST PUSH1 0x0 PUSH1 0x2 DUP3 DIV SWAP1 POP PUSH1 0x1 DUP3 AND DUP1 PUSH3 0x40A JUMPI PUSH1 0x7F DUP3 AND SWAP2 POP JUMPDEST PUSH1 0x20 DUP3 LT DUP2 EQ ISZERO PUSH3 0x421 JUMPI PUSH3 0x420 PUSH3 0x427 JUMP JUMPDEST JUMPDEST POP SWAP2 SWAP1 POP JUMP JUMPDEST PUSH32 0x4E487B7100000000000000000000000000000000000000000000000000000000 PUSH1 0x0 MSTORE PUSH1 0x22 PUSH1 0x4 MSTORE PUSH1 0x24 PUSH1 0x0 REVERT JUMPDEST PUSH2 0x400C DUP1 PUSH3 0x466 PUSH1 0x0 CODECOPY PUSH1 0x0 RETURN INVALID PUSH1 0x80 PUSH1 0x40 MSTORE PUSH1 0x4 CALLDATASIZE LT PUSH2 0x1C2 JUMPI PUSH1 0x0 CALLDATALOAD PUSH1 0xE0 SHR DUP1 PUSH4 0x70A08231 GT PUSH2 0xF7 JUMPI DUP1 PUSH4 0xB88D4FDE GT PUSH2 0x95 JUMPI DUP1 PUSH4 0xE985E9C5 GT PUSH2 0x64 JUMPI DUP1 PUSH4 0xE985E9C5 EQ PUSH2 0x635 JUMPI DUP1 PUSH4 0xEB8D2444 EQ PUSH2 0x672 JUMPI DUP1 PUSH4 0xEE55EFEE EQ PUSH2 0x69D JUMPI DUP1 PUSH4 0xF2FDE38B EQ PUSH2 0x6B4 JUMPI PUSH2 0x1C2 JUMP JUMPDEST DUP1 PUSH4 0xB88D4FDE EQ PUSH2 0x57B JUMPI DUP1 PUSH4 0xC87B56DD EQ PUSH2 0x5A4 JUMPI DUP1 PUSH4 0xD9A59E33 EQ PUSH2 0x5E1 JUMPI DUP1 PUSH4 0xDD11247E EQ PUSH2 0x60A JUMPI PUSH2 0x1C2 JUMP JUMPDEST DUP1 PUSH4 0x82AC0BB8 GT PUSH2 0xD1 JUMPI DUP1 PUSH4 0x82AC0BB8 EQ PUSH2 0x4BF JUMPI DUP1 PUSH4 0x8DA5CB5B EQ PUSH2 0x4FC JUMPI DUP1 PUSH4 0x95D89B41 EQ PUSH2 0x527 JUMPI DUP1 PUSH4 0xA22CB465 EQ PUSH2 0x552 JUMPI PUSH2 0x1C2 JUMP JUMPDEST DUP1 PUSH4 0x70A08231 EQ PUSH2 0x42E JUMPI DUP1 PUSH4 0x715018A6 EQ PUSH2 0x46B JUMPI DUP1 PUSH4 0x80F2ABE3 EQ PUSH2 0x482 JUMPI PUSH2 0x1C2 JUMP JUMPDEST DUP1 PUSH4 0x1ACC9B62 GT PUSH2 0x164 JUMPI DUP1 PUSH4 0x3D721ECD GT PUSH2 0x13E JUMPI DUP1 PUSH4 0x3D721ECD EQ PUSH2 0x372 JUMPI DUP1 PUSH4 0x42842E0E EQ PUSH2 0x39D JUMPI DUP1 PUSH4 0x6352211E EQ PUSH2 0x3C6 JUMPI DUP1 PUSH4 0x6817C76C EQ PUSH2 0x403 JUMPI PUSH2 0x1C2 JUMP JUMPDEST DUP1 PUSH4 0x1ACC9B62 EQ PUSH2 0x2E1 JUMPI DUP1 PUSH4 0x23B872DD EQ PUSH2 0x31E JUMPI DUP1 PUSH4 0x3CFA7E01 EQ PUSH2 0x347 JUMPI PUSH2 0x1C2 JUMP JUMPDEST DUP1 PUSH4 0x95EA7B3 GT PUSH2 0x1A0 JUMPI DUP1 PUSH4 0x95EA7B3 EQ PUSH2 0x26C JUMPI DUP1 PUSH4 0x1249C58B EQ PUSH2 0x295 JUMPI DUP1 PUSH4 0x14558FAB EQ PUSH2 0x29F JUMPI DUP1 PUSH4 0x167FF46F EQ PUSH2 0x2CA JUMPI PUSH2 0x1C2 JUMP JUMPDEST DUP1 PUSH4 0x1FFC9A7 EQ PUSH2 0x1C7 JUMPI DUP1 PUSH4 0x6FDDE03 EQ PUSH2 0x204 JUMPI DUP1 PUSH4 0x81812FC EQ PUSH2 0x22F JUMPI JUMPDEST PUSH1 0x0 DUP1 REVERT JUMPDEST CALLVALUE DUP1 ISZERO PUSH2 0x1D3 JUMPI PUSH1 0x0 DUP1 REVERT JUMPDEST POP PUSH2 0x1EE PUSH1 0x4 DUP1 CALLDATASIZE SUB DUP2 ADD SWAP1 PUSH2 0x1E9 SWAP2 SWAP1 PUSH2 0x2961 JUMP JUMPDEST PUSH2 0x6DD JUMP JUMPDEST PUSH1 0x40 MLOAD PUSH2 0x1FB SWAP2 SWAP1 PUSH2 0x2FBF JUMP JUMPDEST PUSH1 0x40 MLOAD DUP1 SWAP2 SUB SWAP1 RETURN JUMPDEST CALLVALUE DUP1 ISZERO PUSH2 0x210 JUMPI PUSH1 0x0 DUP1 REVERT JUMPDEST POP PUSH2 0x219 PUSH2 0x7BF JUMP JUMPDEST PUSH1 0x40 MLOAD PUSH2 0x226 SWAP2 SWAP1 PUSH2 0x2FDA JUMP JUMPDEST PUSH1 0x40 MLOAD DUP1 SWAP2 SUB SWAP1 RETURN JUMPDEST CALLVALUE DUP1 ISZERO PUSH2 0x23B JUMPI PUSH1 0x0 DUP1 REVERT JUMPDEST POP PUSH2 0x256 PUSH1 0x4 DUP1 CALLDATASIZE SUB DUP2 ADD SWAP1 PUSH2 0x251 SWAP2 SWAP1 PUSH2 0x29BB JUMP JUMPDEST PUSH2 0x851 JUMP JUMPDEST PUSH1 0x40 MLOAD PUSH2 0x263 SWAP2 SWAP1 PUSH2 0x2F58 JUMP JUMPDEST PUSH1 0x40 MLOAD DUP1 SWAP2 SUB SWAP1 RETURN JUMPDEST CALLVALUE DUP1 ISZERO PUSH2 0x278 JUMPI PUSH1 0x0 DUP1 REVERT JUMPDEST POP PUSH2 0x293 PUSH1 0x4 DUP1 CALLDATASIZE SUB DUP2 ADD SWAP1 PUSH2 0x28E SWAP2 SWAP1 PUSH2 0x2921 JUMP JUMPDEST PUSH2 0x8D6 JUMP JUMPDEST STOP JUMPDEST PUSH2 0x29D PUSH2 0x9EE JUMP JUMPDEST STOP JUMPDEST CALLVALUE DUP1 ISZERO PUSH2 0x2AB JUMPI PUSH1 0x0 DUP1 REVERT JUMPDEST POP PUSH2 0x2B4 PUSH2 0xBE0 JUMP JUMPDEST PUSH1 0x40 MLOAD PUSH2 0x2C1 SWAP2 SWAP1 PUSH2 0x329C JUMP JUMPDEST PUSH1 0x40 MLOAD DUP1 SWAP2 SUB SWAP1 RETURN JUMPDEST CALLVALUE DUP1 ISZERO PUSH2 0x2D6 JUMPI PUSH1 0x0 DUP1 REVERT JUMPDEST POP PUSH2 0x2DF PUSH2 0xBEA JUMP JUMPDEST STOP JUMPDEST CALLVALUE DUP1 ISZERO PUSH2 0x2ED JUMPI PUSH1 0x0 DUP1 REVERT JUMPDEST POP PUSH2 0x308 PUSH1 0x4 DUP1 CALLDATASIZE SUB DUP2 ADD SWAP1 PUSH2 0x303 SWAP2 SWAP1 PUSH2 0x279E JUMP JUMPDEST PUSH2 0xC83 JUMP JUMPDEST PUSH1 0x40 MLOAD PUSH2 0x315 SWAP2 SWAP1 PUSH2 0x2FBF JUMP JUMPDEST PUSH1 0x40 MLOAD DUP1 SWAP2 SUB SWAP1 RETURN JUMPDEST CALLVALUE DUP1 ISZERO PUSH2 0x32A JUMPI PUSH1 0x0 DUP1 REVERT JUMPDEST POP PUSH2 0x345 PUSH1 0x4 DUP1 CALLDATASIZE SUB DUP2 ADD SWAP1 PUSH2 0x340 SWAP2 SWAP1 PUSH2 0x280B JUMP JUMPDEST PUSH2 0xCA3 JUMP JUMPDEST STOP JUMPDEST CALLVALUE DUP1 ISZERO PUSH2 0x353 JUMPI PUSH1 0x0 DUP1 REVERT JUMPDEST POP PUSH2 0x35C PUSH2 0xD03 JUMP JUMPDEST PUSH1 0x40 MLOAD PUSH2 0x369 SWAP2 SWAP1 PUSH2 0x329C JUMP JUMPDEST PUSH1 0x40 MLOAD DUP1 SWAP2 SUB SWAP1 RETURN JUMPDEST CALLVALUE DUP1 ISZERO PUSH2 0x37E JUMPI PUSH1 0x0 DUP1 REVERT JUMPDEST POP PUSH2 0x387 PUSH2 0xD09 JUMP JUMPDEST PUSH1 0x40 MLOAD PUSH2 0x394 SWAP2 SWAP1 PUSH2 0x329C JUMP JUMPDEST PUSH1 0x40 MLOAD DUP1 SWAP2 SUB SWAP1 RETURN JUMPDEST CALLVALUE DUP1 ISZERO PUSH2 0x3A9 JUMPI PUSH1 0x0 DUP1 REVERT JUMPDEST POP PUSH2 0x3C4 PUSH1 0x4 DUP1 CALLDATASIZE SUB DUP2 ADD SWAP1 PUSH2 0x3BF SWAP2 SWAP1 PUSH2 0x280B JUMP JUMPDEST PUSH2 0xD13 JUMP JUMPDEST STOP JUMPDEST CALLVALUE DUP1 ISZERO PUSH2 0x3D2 JUMPI PUSH1 0x0 DUP1 REVERT JUMPDEST POP PUSH2 0x3ED PUSH1 0x4 DUP1 CALLDATASIZE SUB DUP2 ADD SWAP1 PUSH2 0x3E8 SWAP2 SWAP1 PUSH2 0x29BB JUMP JUMPDEST PUSH2 0xD33 JUMP JUMPDEST PUSH1 0x40 MLOAD PUSH2 0x3FA SWAP2 SWAP1 PUSH2 0x2F58 JUMP JUMPDEST PUSH1 0x40 MLOAD DUP1 SWAP2 SUB SWAP1 RETURN JUMPDEST CALLVALUE DUP1 ISZERO PUSH2 0x40F JUMPI PUSH1 0x0 DUP1 REVERT JUMPDEST POP PUSH2 0x418 PUSH2 0xDE5 JUMP JUMPDEST PUSH1 0x40 MLOAD PUSH2 0x425 SWAP2 SWAP1 PUSH2 0x329C JUMP JUMPDEST PUSH1 0x40 MLOAD DUP1 SWAP2 SUB SWAP1 RETURN JUMPDEST CALLVALUE DUP1 ISZERO PUSH2 0x43A JUMPI PUSH1 0x0 DUP1 REVERT JUMPDEST POP PUSH2 0x455 PUSH1 0x4 DUP1 CALLDATASIZE SUB DUP2 ADD SWAP1 PUSH2 0x450 SWAP2 SWAP1 PUSH2 0x279E JUMP JUMPDEST PUSH2 0xDEB JUMP JUMPDEST PUSH1 0x40 MLOAD PUSH2 0x462 SWAP2 SWAP1 PUSH2 0x329C JUMP JUMPDEST PUSH1 0x40 MLOAD DUP1 SWAP2 SUB SWAP1 RETURN JUMPDEST CALLVALUE DUP1 ISZERO PUSH2 0x477 JUMPI PUSH1 0x0 DUP1 REVERT JUMPDEST POP PUSH2 0x480 PUSH2 0xEA3 JUMP JUMPDEST STOP JUMPDEST CALLVALUE DUP1 ISZERO PUSH2 0x48E JUMPI PUSH1 0x0 DUP1 REVERT JUMPDEST POP PUSH2 0x4A9 PUSH1 0x4 DUP1 CALLDATASIZE SUB DUP2 ADD SWAP1 PUSH2 0x4A4 SWAP2 SWAP1 PUSH2 0x279E JUMP JUMPDEST PUSH2 0xF2B JUMP JUMPDEST PUSH1 0x40 MLOAD PUSH2 0x4B6 SWAP2 SWAP1 PUSH2 0x2FBF JUMP JUMPDEST PUSH1 0x40 MLOAD DUP1 SWAP2 SUB SWAP1 RETURN JUMPDEST CALLVALUE DUP1 ISZERO PUSH2 0x4CB JUMPI PUSH1 0x0 DUP1 REVERT JUMPDEST POP PUSH2 0x4E6 PUSH1 0x4 DUP1 CALLDATASIZE SUB DUP2 ADD SWAP1 PUSH2 0x4E1 SWAP2 SWAP1 PUSH2 0x2921 JUMP JUMPDEST PUSH2 0xF79 JUMP JUMPDEST PUSH1 0x40 MLOAD PUSH2 0x4F3 SWAP2 SWAP1 PUSH2 0x329C JUMP JUMPDEST PUSH1 0x40 MLOAD DUP1 SWAP2 SUB SWAP1 RETURN JUMPDEST CALLVALUE DUP1 ISZERO PUSH2 0x508 JUMPI PUSH1 0x0 DUP1 REVERT JUMPDEST POP PUSH2 0x511 PUSH2 0xFAA JUMP JUMPDEST PUSH1 0x40 MLOAD PUSH2 0x51E SWAP2 SWAP1 PUSH2 0x2F58 JUMP JUMPDEST PUSH1 0x40 MLOAD DUP1 SWAP2 SUB SWAP1 RETURN JUMPDEST CALLVALUE DUP1 ISZERO PUSH2 0x533 JUMPI PUSH1 0x0 DUP1 REVERT JUMPDEST POP PUSH2 0x53C PUSH2 0xFD4 JUMP JUMPDEST PUSH1 0x40 MLOAD PUSH2 0x549 SWAP2 SWAP1 PUSH2 0x2FDA JUMP JUMPDEST PUSH1 0x40 MLOAD DUP1 SWAP2 SUB SWAP1 RETURN JUMPDEST CALLVALUE DUP1 ISZERO PUSH2 0x55E JUMPI PUSH1 0x0 DUP1 REVERT JUMPDEST POP PUSH2 0x579 PUSH1 0x4 DUP1 CALLDATASIZE SUB DUP2 ADD SWAP1 PUSH2 0x574 SWAP2 SWAP1 PUSH2 0x28E1 JUMP JUMPDEST PUSH2 0x1066 JUMP JUMPDEST STOP JUMPDEST CALLVALUE DUP1 ISZERO PUSH2 0x587 JUMPI PUSH1 0x0 DUP1 REVERT JUMPDEST POP PUSH2 0x5A2 PUSH1 0x4 DUP1 CALLDATASIZE SUB DUP2 ADD SWAP1 PUSH2 0x59D SWAP2 SWAP1 PUSH2 0x285E JUMP JUMPDEST PUSH2 0x107C JUMP JUMPDEST STOP JUMPDEST CALLVALUE DUP1 ISZERO PUSH2 0x5B0 JUMPI PUSH1 0x0 DUP1 REVERT JUMPDEST POP PUSH2 0x5CB PUSH1 0x4 DUP1 CALLDATASIZE SUB DUP2 ADD SWAP1 PUSH2 0x5C6 SWAP2 SWAP1 PUSH2 0x29BB JUMP JUMPDEST PUSH2 0x10DE JUMP JUMPDEST PUSH1 0x40 MLOAD PUSH2 0x5D8 SWAP2 SWAP1 PUSH2 0x2FDA JUMP JUMPDEST PUSH1 0x40 MLOAD DUP1 SWAP2 SUB SWAP1 RETURN JUMPDEST CALLVALUE DUP1 ISZERO PUSH2 0x5ED JUMPI PUSH1 0x0 DUP1 REVERT JUMPDEST POP PUSH2 0x608 PUSH1 0x4 DUP1 CALLDATASIZE SUB DUP2 ADD SWAP1 PUSH2 0x603 SWAP2 SWAP1 PUSH2 0x279E JUMP JUMPDEST PUSH2 0x1230 JUMP JUMPDEST STOP JUMPDEST CALLVALUE DUP1 ISZERO PUSH2 0x616 JUMPI PUSH1 0x0 DUP1 REVERT JUMPDEST POP PUSH2 0x61F PUSH2 0x1351 JUMP JUMPDEST PUSH1 0x40 MLOAD PUSH2 0x62C SWAP2 SWAP1 PUSH2 0x329C JUMP JUMPDEST PUSH1 0x40 MLOAD DUP1 SWAP2 SUB SWAP1 RETURN JUMPDEST CALLVALUE DUP1 ISZERO PUSH2 0x641 JUMPI PUSH1 0x0 DUP1 REVERT JUMPDEST POP PUSH2 0x65C PUSH1 0x4 DUP1 CALLDATASIZE SUB DUP2 ADD SWAP1 PUSH2 0x657 SWAP2 SWAP1 PUSH2 0x27CB JUMP JUMPDEST PUSH2 0x1357 JUMP JUMPDEST PUSH1 0x40 MLOAD PUSH2 0x669 SWAP2 SWAP1 PUSH2 0x2FBF JUMP JUMPDEST PUSH1 0x40 MLOAD DUP1 SWAP2 SUB SWAP1 RETURN JUMPDEST CALLVALUE DUP1 ISZERO PUSH2 0x67E JUMPI PUSH1 0x0 DUP1 REVERT JUMPDEST POP PUSH2 0x687 PUSH2 0x13EB JUMP JUMPDEST PUSH1 0x40 MLOAD PUSH2 0x694 SWAP2 SWAP1 PUSH2 0x2FBF JUMP JUMPDEST PUSH1 0x40 MLOAD DUP1 SWAP2 SUB SWAP1 RETURN JUMPDEST CALLVALUE DUP1 ISZERO PUSH2 0x6A9 JUMPI PUSH1 0x0 DUP1 REVERT JUMPDEST POP PUSH2 0x6B2 PUSH2 0x13FE JUMP JUMPDEST STOP JUMPDEST CALLVALUE DUP1 ISZERO PUSH2 0x6C0 JUMPI PUSH1 0x0 DUP1 REVERT JUMPDEST POP PUSH2 0x6DB PUSH1 0x4 DUP1 CALLDATASIZE SUB DUP2 ADD SWAP1 PUSH2 0x6D6 SWAP2 SWAP1 PUSH2 0x279E JUMP JUMPDEST PUSH2 0x1497 JUMP JUMPDEST STOP JUMPDEST PUSH1 0x0 PUSH32 0x80AC58CD00000000000000000000000000000000000000000000000000000000 PUSH28 0xFFFFFFFFFFFFFFFFFFFFFFFFFFFFFFFFFFFFFFFFFFFFFFFFFFFFFFFF NOT AND DUP3 PUSH28 0xFFFFFFFFFFFFFFFFFFFFFFFFFFFFFFFFFFFFFFFFFFFFFFFFFFFFFFFF NOT AND EQ DUP1 PUSH2 0x7A8 JUMPI POP PUSH32 0x5B5E139F00000000000000000000000000000000000000000000000000000000 PUSH28 0xFFFFFFFFFFFFFFFFFFFFFFFFFFFFFFFFFFFFFFFFFFFFFFFFFFFFFFFF NOT AND DUP3 PUSH28 0xFFFFFFFFFFFFFFFFFFFFFFFFFFFFFFFFFFFFFFFFFFFFFFFFFFFFFFFF NOT AND EQ JUMPDEST DUP1 PUSH2 0x7B8 JUMPI POP PUSH2 0x7B7 DUP3 PUSH2 0x164C JUMP JUMPDEST JUMPDEST SWAP1 POP SWAP2 SWAP1 POP JUMP JUMPDEST PUSH1 0x60 PUSH1 0x0 DUP1 SLOAD PUSH2 0x7CE SWAP1 PUSH2 0x351B JUMP JUMPDEST DUP1 PUSH1 0x1F ADD PUSH1 0x20 DUP1 SWAP2 DIV MUL PUSH1 0x20 ADD PUSH1 0x40 MLOAD SWAP1 DUP2 ADD PUSH1 0x40 MSTORE DUP1 SWAP3 SWAP2 SWAP1 DUP2 DUP2 MSTORE PUSH1 0x20 ADD DUP3 DUP1 SLOAD PUSH2 0x7FA SWAP1 PUSH2 0x351B JUMP JUMPDEST DUP1 ISZERO PUSH2 0x847 JUMPI DUP1 PUSH1 0x1F LT PUSH2 0x81C JUMPI PUSH2 0x100 DUP1 DUP4 SLOAD DIV MUL DUP4 MSTORE SWAP2 PUSH1 0x20 ADD SWAP2 PUSH2 0x847 JUMP JUMPDEST DUP3 ADD SWAP2 SWAP1 PUSH1 0x0 MSTORE PUSH1 0x20 PUSH1 0x0 KECCAK256 SWAP1 JUMPDEST DUP2 SLOAD DUP2 MSTORE SWAP1 PUSH1 0x1 ADD SWAP1 PUSH1 0x20 ADD DUP1 DUP4 GT PUSH2 0x82A JUMPI DUP3 SWAP1 SUB PUSH1 0x1F AND DUP3 ADD SWAP2 JUMPDEST POP POP POP POP POP SWAP1 POP SWAP1 JUMP JUMPDEST PUSH1 0x0 PUSH2 0x85C DUP3 PUSH2 0x16B6 JUMP JUMPDEST PUSH2 0x89B JUMPI PUSH1 0x40 MLOAD PUSH32 0x8C379A000000000000000000000000000000000000000000000000000000000 DUP2 MSTORE PUSH1 0x4 ADD PUSH2 0x892 SWAP1 PUSH2 0x31FC JUMP JUMPDEST PUSH1 0x40 MLOAD DUP1 SWAP2 SUB SWAP1 REVERT JUMPDEST PUSH1 0x4 PUSH1 0x0 DUP4 DUP2 MSTORE PUSH1 0x20 ADD SWAP1 DUP2 MSTORE PUSH1 0x20 ADD PUSH1 0x0 KECCAK256 PUSH1 0x0 SWAP1 SLOAD SWAP1 PUSH2 0x100 EXP SWAP1 DIV PUSH20 0xFFFFFFFFFFFFFFFFFFFFFFFFFFFFFFFFFFFFFFFF AND SWAP1 POP SWAP2 SWAP1 POP JUMP JUMPDEST PUSH1 0x0 PUSH2 0x8E1 DUP3 PUSH2 0xD33 JUMP JUMPDEST SWAP1 POP DUP1 PUSH20 0xFFFFFFFFFFFFFFFFFFFFFFFFFFFFFFFFFFFFFFFF AND DUP4 PUSH20 0xFFFFFFFFFFFFFFFFFFFFFFFFFFFFFFFFFFFFFFFF AND EQ ISZERO PUSH2 0x952 JUMPI PUSH1 0x40 MLOAD PUSH32 0x8C379A000000000000000000000000000000000000000000000000000000000 DUP2 MSTORE PUSH1 0x4 ADD PUSH2 0x949 SWAP1 PUSH2 0x325C JUMP JUMPDEST PUSH1 0x40 MLOAD DUP1 SWAP2 SUB SWAP1 REVERT JUMPDEST DUP1 PUSH20 0xFFFFFFFFFFFFFFFFFFFFFFFFFFFFFFFFFFFFFFFF AND PUSH2 0x971 PUSH2 0x1722 JUMP JUMPDEST PUSH20 0xFFFFFFFFFFFFFFFFFFFFFFFFFFFFFFFFFFFFFFFF AND EQ DUP1 PUSH2 0x9A0 JUMPI POP PUSH2 0x99F DUP2 PUSH2 0x99A PUSH2 0x1722 JUMP JUMPDEST PUSH2 0x1357 JUMP JUMPDEST JUMPDEST PUSH2 0x9DF JUMPI PUSH1 0x40 MLOAD PUSH32 0x8C379A000000000000000000000000000000000000000000000000000000000 DUP2 MSTORE PUSH1 0x4 ADD PUSH2 0x9D6 SWAP1 PUSH2 0x313C JUMP JUMPDEST PUSH1 0x40 MLOAD DUP1 SWAP2 SUB SWAP1 REVERT JUMPDEST PUSH2 0x9E9 DUP4 DUP4 PUSH2 0x172A JUMP JUMPDEST POP POP POP JUMP JUMPDEST PUSH1 0x0 PUSH1 0xB SLOAD GT PUSH2 0xA33 JUMPI PUSH1 0x40 MLOAD PUSH32 0x8C379A000000000000000000000000000000000000000000000000000000000 DUP2 MSTORE PUSH1 0x4 ADD PUSH2 0xA2A SWAP1 PUSH2 0x30FC JUMP JUMPDEST PUSH1 0x40 MLOAD DUP1 SWAP2 SUB SWAP1 REVERT JUMPDEST PUSH1 0xC SLOAD CALLVALUE LT ISZERO PUSH2 0xA78 JUMPI PUSH1 0x40 MLOAD PUSH32 0x8C379A000000000000000000000000000000000000000000000000000000000 DUP2 MSTORE PUSH1 0x4 ADD PUSH2 0xA6F SWAP1 PUSH2 0x301C JUMP JUMPDEST PUSH1 0x40 MLOAD DUP1 SWAP2 SUB SWAP1 REVERT JUMPDEST PUSH1 0x9 PUSH1 0x0 SWAP1 SLOAD SWAP1 PUSH2 0x100 EXP SWAP1 DIV PUSH1 0xFF AND PUSH2 0xAC7 JUMPI PUSH1 0x40 MLOAD PUSH32 0x8C379A000000000000000000000000000000000000000000000000000000000 DUP2 MSTORE PUSH1 0x4 ADD PUSH2 0xABE SWAP1 PUSH2 0x2FFC JUMP JUMPDEST PUSH1 0x40 MLOAD DUP1 SWAP2 SUB SWAP1 REVERT JUMPDEST PUSH1 0x0 PUSH2 0xB02 PUSH2 0xADE PUSH2 0xAD9 PUSH1 0x8 PUSH2 0x15A5 JUMP JUMPDEST PUSH2 0x17E3 JUMP JUMPDEST PUSH1 0x40 MLOAD PUSH1 0x20 ADD PUSH2 0xAEE SWAP2 SWAP1 PUSH2 0x2F15 JUMP JUMPDEST PUSH1 0x40 MLOAD PUSH1 0x20 DUP2 DUP4 SUB SUB DUP2 MSTORE SWAP1 PUSH1 0x40 MSTORE PUSH2 0x1944 JUMP JUMPDEST SWAP1 POP PUSH1 0x0 DUP2 PUSH1 0x40 MLOAD PUSH1 0x20 ADD PUSH2 0xB17 SWAP2 SWAP1 PUSH2 0x2EB0 JUMP JUMPDEST PUSH1 0x40 MLOAD PUSH1 0x20 DUP2 DUP4 SUB SUB DUP2 MSTORE SWAP1 PUSH1 0x40 MSTORE SWAP1 POP PUSH2 0xB3B CALLER PUSH2 0xB36 PUSH1 0x8 PUSH2 0x15A5 JUMP JUMPDEST PUSH2 0x1ADC JUMP JUMPDEST PUSH2 0xB4E PUSH2 0xB48 PUSH1 0x8 PUSH2 0x15A5 JUMP JUMPDEST DUP3 PUSH2 0x1AFA JUMP JUMPDEST PUSH1 0xD PUSH1 0x0 CALLER PUSH20 0xFFFFFFFFFFFFFFFFFFFFFFFFFFFFFFFFFFFFFFFF AND PUSH20 0xFFFFFFFFFFFFFFFFFFFFFFFFFFFFFFFFFFFFFFFF AND DUP2 MSTORE PUSH1 0x20 ADD SWAP1 DUP2 MSTORE PUSH1 0x20 ADD PUSH1 0x0 KECCAK256 PUSH2 0xB97 PUSH1 0x8 PUSH2 0x15A5 JUMP JUMPDEST SWAP1 DUP1 PUSH1 0x1 DUP2 SLOAD ADD DUP1 DUP3 SSTORE DUP1 SWAP2 POP POP PUSH1 0x1 SWAP1 SUB SWAP1 PUSH1 0x0 MSTORE PUSH1 0x20 PUSH1 0x0 KECCAK256 ADD PUSH1 0x0 SWAP1 SWAP2 SWAP1 SWAP2 SWAP1 SWAP2 POP SSTORE PUSH2 0xBC7 PUSH1 0x8 PUSH2 0x158F JUMP JUMPDEST PUSH1 0x1 PUSH1 0xB SLOAD PUSH2 0xBD6 SWAP2 SWAP1 PUSH2 0x3431 JUMP JUMPDEST PUSH1 0xB DUP2 SWAP1 SSTORE POP POP POP JUMP JUMPDEST PUSH1 0x0 PUSH1 0xA SLOAD SWAP1 POP SWAP1 JUMP JUMPDEST PUSH2 0xBF2 PUSH2 0x1722 JUMP JUMPDEST PUSH20 0xFFFFFFFFFFFFFFFFFFFFFFFFFFFFFFFFFFFFFFFF AND PUSH2 0xC10 PUSH2 0xFAA JUMP JUMPDEST PUSH20 0xFFFFFFFFFFFFFFFFFFFFFFFFFFFFFFFFFFFFFFFF AND EQ PUSH2 0xC66 JUMPI PUSH1 0x40 MLOAD PUSH32 0x8C379A000000000000000000000000000000000000000000000000000000000 DUP2 MSTORE PUSH1 0x4 ADD PUSH2 0xC5D SWAP1 PUSH2 0x321C JUMP JUMPDEST PUSH1 0x40 MLOAD DUP1 SWAP2 SUB SWAP1 REVERT JUMPDEST PUSH1 0x1 PUSH1 0x9 PUSH1 0x0 PUSH2 0x100 EXP DUP2 SLOAD DUP2 PUSH1 0xFF MUL NOT AND SWAP1 DUP4 ISZERO ISZERO MUL OR SWAP1 SSTORE POP JUMP JUMPDEST PUSH1 0xE PUSH1 0x20 MSTORE DUP1 PUSH1 0x0 MSTORE PUSH1 0x40 PUSH1 0x0 KECCAK256 PUSH1 0x0 SWAP2 POP SLOAD SWAP1 PUSH2 0x100 EXP SWAP1 DIV PUSH1 0xFF AND DUP2 JUMP JUMPDEST PUSH2 0xCB4 PUSH2 0xCAE PUSH2 0x1722 JUMP JUMPDEST DUP3 PUSH2 0x1B6E JUMP JUMPDEST PUSH2 0xCF3 JUMPI PUSH1 0x40 MLOAD PUSH32 0x8C379A000000000000000000000000000000000000000000000000000000000 DUP2 MSTORE PUSH1 0x4 ADD PUSH2 0xCEA SWAP1 PUSH2 0x327C JUMP JUMPDEST PUSH1 0x40 MLOAD DUP1 SWAP2 SUB SWAP1 REVERT JUMPDEST PUSH2 0xCFE DUP4 DUP4 DUP4 PUSH2 0x1C4C JUMP JUMPDEST POP POP POP JUMP JUMPDEST PUSH1 0xB SLOAD DUP2 JUMP JUMPDEST PUSH1 0x0 PUSH1 0xB SLOAD SWAP1 POP SWAP1 JUMP JUMPDEST PUSH2 0xD2E DUP4 DUP4 DUP4 PUSH1 0x40 MLOAD DUP1 PUSH1 0x20 ADD PUSH1 0x40 MSTORE DUP1 PUSH1 0x0 DUP2 MSTORE POP PUSH2 0x107C JUMP JUMPDEST POP POP POP JUMP JUMPDEST PUSH1 0x0 DUP1 PUSH1 0x2 PUSH1 0x0 DUP5 DUP2 MSTORE PUSH1 0x20 ADD SWAP1 DUP2 MSTORE PUSH1 0x20 ADD PUSH1 0x0 KECCAK256 PUSH1 0x0 SWAP1 SLOAD SWAP1 PUSH2 0x100 EXP SWAP1 DIV PUSH20 0xFFFFFFFFFFFFFFFFFFFFFFFFFFFFFFFFFFFFFFFF AND SWAP1 POP PUSH1 0x0 PUSH20 0xFFFFFFFFFFFFFFFFFFFFFFFFFFFFFFFFFFFFFFFF AND DUP2 PUSH20 0xFFFFFFFFFFFFFFFFFFFFFFFFFFFFFFFFFFFFFFFF AND EQ ISZERO PUSH2 0xDDC JUMPI PUSH1 0x40 MLOAD PUSH32 0x8C379A000000000000000000000000000000000000000000000000000000000 DUP2 MSTORE PUSH1 0x4 ADD PUSH2 0xDD3 SWAP1 PUSH2 0x317C JUMP JUMPDEST PUSH1 0x40 MLOAD DUP1 SWAP2 SUB SWAP1 REVERT JUMPDEST DUP1 SWAP2 POP POP SWAP2 SWAP1 POP JUMP JUMPDEST PUSH1 0xC SLOAD DUP2 JUMP JUMPDEST PUSH1 0x0 DUP1 PUSH20 0xFFFFFFFFFFFFFFFFFFFFFFFFFFFFFFFFFFFFFFFF AND DUP3 PUSH20 0xFFFFFFFFFFFFFFFFFFFFFFFFFFFFFFFFFFFFFFFF AND EQ ISZERO PUSH2 0xE5C JUMPI PUSH1 0x40 MLOAD PUSH32 0x8C379A000000000000000000000000000000000000000000000000000000000 DUP2 MSTORE PUSH1 0x4 ADD PUSH2 0xE53 SWAP1 PUSH2 0x315C JUMP JUMPDEST PUSH1 0x40 MLOAD DUP1 SWAP2 SUB SWAP1 REVERT JUMPDEST PUSH1 0x3 PUSH1 0x0 DUP4 PUSH20 0xFFFFFFFFFFFFFFFFFFFFFFFFFFFFFFFFFFFFFFFF AND PUSH20 0xFFFFFFFFFFFFFFFFFFFFFFFFFFFFFFFFFFFFFFFF AND DUP2 MSTORE PUSH1 0x20 ADD SWAP1 DUP2 MSTORE PUSH1 0x20 ADD PUSH1 0x0 KECCAK256 SLOAD SWAP1 POP SWAP2 SWAP1 POP JUMP JUMPDEST PUSH2 0xEAB PUSH2 0x1722 JUMP JUMPDEST PUSH20 0xFFFFFFFFFFFFFFFFFFFFFFFFFFFFFFFFFFFFFFFF AND PUSH2 0xEC9 PUSH2 0xFAA JUMP JUMPDEST PUSH20 0xFFFFFFFFFFFFFFFFFFFFFFFFFFFFFFFFFFFFFFFF AND EQ PUSH2 0xF1F JUMPI PUSH1 0x40 MLOAD PUSH32 0x8C379A000000000000000000000000000000000000000000000000000000000 DUP2 MSTORE PUSH1 0x4 ADD PUSH2 0xF16 SWAP1 PUSH2 0x321C JUMP JUMPDEST PUSH1 0x40 MLOAD DUP1 SWAP2 SUB SWAP1 REVERT JUMPDEST PUSH2 0xF29 PUSH1 0x0 PUSH2 0x1EB3 JUMP JUMPDEST JUMP JUMPDEST PUSH1 0x0 DUP1 PUSH1 0xD PUSH1 0x0 DUP5 PUSH20 0xFFFFFFFFFFFFFFFFFFFFFFFFFFFFFFFFFFFFFFFF AND PUSH20 0xFFFFFFFFFFFFFFFFFFFFFFFFFFFFFFFFFFFFFFFF AND DUP2 MSTORE PUSH1 0x20 ADD SWAP1 DUP2 MSTORE PUSH1 0x20 ADD PUSH1 0x0 KECCAK256 DUP1 SLOAD SWAP1 POP GT SWAP1 POP SWAP2 SWAP1 POP JUMP JUMPDEST PUSH1 0xD PUSH1 0x20 MSTORE DUP2 PUSH1 0x0 MSTORE PUSH1 0x40 PUSH1 0x0 KECCAK256 DUP2 DUP2 SLOAD DUP2 LT PUSH2 0xF95 JUMPI PUSH1 0x0 DUP1 REVERT JUMPDEST SWAP1 PUSH1 0x0 MSTORE PUSH1 0x20 PUSH1 0x0 KECCAK256 ADD PUSH1 0x0 SWAP2 POP SWAP2 POP POP SLOAD DUP2 JUMP JUMPDEST PUSH1 0x0 PUSH1 0x7 PUSH1 0x0 SWAP1 SLOAD SWAP1 PUSH2 0x100 EXP SWAP1 DIV PUSH20 0xFFFFFFFFFFFFFFFFFFFFFFFFFFFFFFFFFFFFFFFF AND SWAP1 POP SWAP1 JUMP JUMPDEST PUSH1 0x60 PUSH1 0x1 DUP1 SLOAD PUSH2 0xFE3 SWAP1 PUSH2 0x351B JUMP JUMPDEST DUP1 PUSH1 0x1F ADD PUSH1 0x20 DUP1 SWAP2 DIV MUL PUSH1 0x20 ADD PUSH1 0x40 MLOAD SWAP1 DUP2 ADD PUSH1 0x40 MSTORE DUP1 SWAP3 SWAP2 SWAP1 DUP2 DUP2 MSTORE PUSH1 0x20 ADD DUP3 DUP1 SLOAD PUSH2 0x100F SWAP1 PUSH2 0x351B JUMP JUMPDEST DUP1 ISZERO PUSH2 0x105C JUMPI DUP1 PUSH1 0x1F LT PUSH2 0x1031 JUMPI PUSH2 0x100 DUP1 DUP4 SLOAD DIV MUL DUP4 MSTORE SWAP2 PUSH1 0x20 ADD SWAP2 PUSH2 0x105C JUMP JUMPDEST DUP3 ADD SWAP2 SWAP1 PUSH1 0x0 MSTORE PUSH1 0x20 PUSH1 0x0 KECCAK256 SWAP1 JUMPDEST DUP2 SLOAD DUP2 MSTORE SWAP1 PUSH1 0x1 ADD SWAP1 PUSH1 0x20 ADD DUP1 DUP4 GT PUSH2 0x103F JUMPI DUP3 SWAP1 SUB PUSH1 0x1F AND DUP3 ADD SWAP2 JUMPDEST POP POP POP POP POP SWAP1 POP SWAP1 JUMP JUMPDEST PUSH2 0x1078 PUSH2 0x1071 PUSH2 0x1722 JUMP JUMPDEST DUP4 DUP4 PUSH2 0x1F79 JUMP JUMPDEST POP POP JUMP JUMPDEST PUSH2 0x108D PUSH2 0x1087 PUSH2 0x1722 JUMP JUMPDEST DUP4 PUSH2 0x1B6E JUMP JUMPDEST PUSH2 0x10CC JUMPI PUSH1 0x40 MLOAD PUSH32 0x8C379A000000000000000000000000000000000000000000000000000000000 DUP2 MSTORE PUSH1 0x4 ADD PUSH2 0x10C3 SWAP1 PUSH2 0x327C JUMP JUMPDEST PUSH1 0x40 MLOAD DUP1 SWAP2 SUB SWAP1 REVERT JUMPDEST PUSH2 0x10D8 DUP5 DUP5 DUP5 DUP5 PUSH2 0x20E6 JUMP JUMPDEST POP POP POP POP JUMP JUMPDEST PUSH1 0x60 PUSH2 0x10E9 DUP3 PUSH2 0x16B6 JUMP JUMPDEST PUSH2 0x1128 JUMPI PUSH1 0x40 MLOAD PUSH32 0x8C379A000000000000000000000000000000000000000000000000000000000 DUP2 MSTORE PUSH1 0x4 ADD PUSH2 0x111F SWAP1 PUSH2 0x31DC JUMP JUMPDEST PUSH1 0x40 MLOAD DUP1 SWAP2 SUB SWAP1 REVERT JUMPDEST PUSH1 0x0 PUSH1 0x6 PUSH1 0x0 DUP5 DUP2 MSTORE PUSH1 0x20 ADD SWAP1 DUP2 MSTORE PUSH1 0x20 ADD PUSH1 0x0 KECCAK256 DUP1 SLOAD PUSH2 0x1148 SWAP1 PUSH2 0x351B JUMP JUMPDEST DUP1 PUSH1 0x1F ADD PUSH1 0x20 DUP1 SWAP2 DIV MUL PUSH1 0x20 ADD PUSH1 0x40 MLOAD SWAP1 DUP2 ADD PUSH1 0x40 MSTORE DUP1 SWAP3 SWAP2 SWAP1 DUP2 DUP2 MSTORE PUSH1 0x20 ADD DUP3 DUP1 SLOAD PUSH2 0x1174 SWAP1 PUSH2 0x351B JUMP JUMPDEST DUP1 ISZERO PUSH2 0x11C1 JUMPI DUP1 PUSH1 0x1F LT PUSH2 0x1196 JUMPI PUSH2 0x100 DUP1 DUP4 SLOAD DIV MUL DUP4 MSTORE SWAP2 PUSH1 0x20 ADD SWAP2 PUSH2 0x11C1 JUMP JUMPDEST DUP3 ADD SWAP2 SWAP1 PUSH1 0x0 MSTORE PUSH1 0x20 PUSH1 0x0 KECCAK256 SWAP1 JUMPDEST DUP2 SLOAD DUP2 MSTORE SWAP1 PUSH1 0x1 ADD SWAP1 PUSH1 0x20 ADD DUP1 DUP4 GT PUSH2 0x11A4 JUMPI DUP3 SWAP1 SUB PUSH1 0x1F AND DUP3 ADD SWAP2 JUMPDEST POP POP POP POP POP SWAP1 POP PUSH1 0x0 PUSH2 0x11D2 PUSH2 0x2142 JUMP JUMPDEST SWAP1 POP PUSH1 0x0 DUP2 MLOAD EQ ISZERO PUSH2 0x11E8 JUMPI DUP2 SWAP3 POP POP POP PUSH2 0x122B JUMP JUMPDEST PUSH1 0x0 DUP3 MLOAD GT ISZERO PUSH2 0x121D JUMPI DUP1 DUP3 PUSH1 0x40 MLOAD PUSH1 0x20 ADD PUSH2 0x1205 SWAP3 SWAP2 SWAP1 PUSH2 0x2E8C JUMP JUMPDEST PUSH1 0x40 MLOAD PUSH1 0x20 DUP2 DUP4 SUB SUB DUP2 MSTORE SWAP1 PUSH1 0x40 MSTORE SWAP3 POP POP POP PUSH2 0x122B JUMP JUMPDEST PUSH2 0x1226 DUP5 PUSH2 0x2159 JUMP JUMPDEST SWAP3 POP POP POP JUMPDEST SWAP2 SWAP1 POP JUMP JUMPDEST PUSH1 0x1 PUSH1 0xE PUSH1 0x0 DUP4 PUSH20 0xFFFFFFFFFFFFFFFFFFFFFFFFFFFFFFFFFFFFFFFF AND PUSH20 0xFFFFFFFFFFFFFFFFFFFFFFFFFFFFFFFFFFFFFFFF AND DUP2 MSTORE PUSH1 0x20 ADD SWAP1 DUP2 MSTORE PUSH1 0x20 ADD PUSH1 0x0 KECCAK256 PUSH1 0x0 PUSH2 0x100 EXP DUP2 SLOAD DUP2 PUSH1 0xFF MUL NOT AND SWAP1 DUP4 ISZERO ISZERO MUL OR SWAP1 SSTORE POP PUSH1 0x0 PUSH1 0xD PUSH1 0x0 DUP4 PUSH20 0xFFFFFFFFFFFFFFFFFFFFFFFFFFFFFFFFFFFFFFFF AND PUSH20 0xFFFFFFFFFFFFFFFFFFFFFFFFFFFFFFFFFFFFFFFF AND DUP2 MSTORE PUSH1 0x20 ADD SWAP1 DUP2 MSTORE PUSH1 0x20 ADD PUSH1 0x0 KECCAK256 PUSH1 0x0 DUP2 SLOAD DUP2 LT PUSH2 0x12DC JUMPI PUSH2 0x12DB PUSH2 0x3685 JUMP JUMPDEST JUMPDEST SWAP1 PUSH1 0x0 MSTORE PUSH1 0x20 PUSH1 0x0 KECCAK256 ADD SLOAD SWAP1 POP PUSH1 0x0 PUSH2 0x131B PUSH2 0x12F7 DUP4 PUSH2 0x17E3 JUMP JUMPDEST PUSH1 0x40 MLOAD PUSH1 0x20 ADD PUSH2 0x1307 SWAP2 SWAP1 PUSH2 0x2ED2 JUMP JUMPDEST PUSH1 0x40 MLOAD PUSH1 0x20 DUP2 DUP4 SUB SUB DUP2 MSTORE SWAP1 PUSH1 0x40 MSTORE PUSH2 0x1944 JUMP JUMPDEST SWAP1 POP PUSH1 0x0 DUP2 PUSH1 0x40 MLOAD PUSH1 0x20 ADD PUSH2 0x1330 SWAP2 SWAP1 PUSH2 0x2EB0 JUMP JUMPDEST PUSH1 0x40 MLOAD PUSH1 0x20 DUP2 DUP4 SUB SUB DUP2 MSTORE SWAP1 PUSH1 0x40 MSTORE SWAP1 POP PUSH2 0x134B DUP4 DUP3 PUSH2 0x1AFA JUMP JUMPDEST POP POP POP POP JUMP JUMPDEST PUSH1 0xA SLOAD DUP2 JUMP JUMPDEST PUSH1 0x0 PUSH1 0x5 PUSH1 0x0 DUP5 PUSH20 0xFFFFFFFFFFFFFFFFFFFFFFFFFFFFFFFFFFFFFFFF AND PUSH20 0xFFFFFFFFFFFFFFFFFFFFFFFFFFFFFFFFFFFFFFFF AND DUP2 MSTORE PUSH1 0x20 ADD SWAP1 DUP2 MSTORE PUSH1 0x20 ADD PUSH1 0x0 KECCAK256 PUSH1 0x0 DUP4 PUSH20 0xFFFFFFFFFFFFFFFFFFFFFFFFFFFFFFFFFFFFFFFF AND PUSH20 0xFFFFFFFFFFFFFFFFFFFFFFFFFFFFFFFFFFFFFFFF AND DUP2 MSTORE PUSH1 0x20 ADD SWAP1 DUP2 MSTORE PUSH1 0x20 ADD PUSH1 0x0 KECCAK256 PUSH1 0x0 SWAP1 SLOAD SWAP1 PUSH2 0x100 EXP SWAP1 DIV PUSH1 0xFF AND SWAP1 POP SWAP3 SWAP2 POP POP JUMP JUMPDEST PUSH1 0x9 PUSH1 0x0 SWAP1 SLOAD SWAP1 PUSH2 0x100 EXP SWAP1 DIV PUSH1 0xFF AND DUP2 JUMP JUMPDEST PUSH2 0x1406 PUSH2 0x1722 JUMP JUMPDEST PUSH20 0xFFFFFFFFFFFFFFFFFFFFFFFFFFFFFFFFFFFFFFFF AND PUSH2 0x1424 PUSH2 0xFAA JUMP JUMPDEST PUSH20 0xFFFFFFFFFFFFFFFFFFFFFFFFFFFFFFFFFFFFFFFF AND EQ PUSH2 0x147A JUMPI PUSH1 0x40 MLOAD PUSH32 0x8C379A000000000000000000000000000000000000000000000000000000000 DUP2 MSTORE PUSH1 0x4 ADD PUSH2 0x1471 SWAP1 PUSH2 0x321C JUMP JUMPDEST PUSH1 0x40 MLOAD DUP1 SWAP2 SUB SWAP1 REVERT JUMPDEST PUSH1 0x0 PUSH1 0x9 PUSH1 0x0 PUSH2 0x100 EXP DUP2 SLOAD DUP2 PUSH1 0xFF MUL NOT AND SWAP1 DUP4 ISZERO ISZERO MUL OR SWAP1 SSTORE POP JUMP JUMPDEST PUSH2 0x149F PUSH2 0x1722 JUMP JUMPDEST PUSH20 0xFFFFFFFFFFFFFFFFFFFFFFFFFFFFFFFFFFFFFFFF AND PUSH2 0x14BD PUSH2 0xFAA JUMP JUMPDEST PUSH20 0xFFFFFFFFFFFFFFFFFFFFFFFFFFFFFFFFFFFFFFFF AND EQ PUSH2 0x1513 JUMPI PUSH1 0x40 MLOAD PUSH32 0x8C379A000000000000000000000000000000000000000000000000000000000 DUP2 MSTORE PUSH1 0x4 ADD PUSH2 0x150A SWAP1 PUSH2 0x321C JUMP JUMPDEST PUSH1 0x40 MLOAD DUP1 SWAP2 SUB SWAP1 REVERT JUMPDEST PUSH1 0x0 PUSH20 0xFFFFFFFFFFFFFFFFFFFFFFFFFFFFFFFFFFFFFFFF AND DUP2 PUSH20 0xFFFFFFFFFFFFFFFFFFFFFFFFFFFFFFFFFFFFFFFF AND EQ ISZERO PUSH2 0x1583 JUMPI PUSH1 0x40 MLOAD PUSH32 0x8C379A000000000000000000000000000000000000000000000000000000000 DUP2 MSTORE PUSH1 0x4 ADD PUSH2 0x157A SWAP1 PUSH2 0x305C JUMP JUMPDEST PUSH1 0x40 MLOAD DUP1 SWAP2 SUB SWAP1 REVERT JUMPDEST PUSH2 0x158C DUP2 PUSH2 0x1EB3 JUMP JUMPDEST POP JUMP JUMPDEST PUSH1 0x1 DUP2 PUSH1 0x0 ADD PUSH1 0x0 DUP3 DUP3 SLOAD ADD SWAP3 POP POP DUP2 SWAP1 SSTORE POP POP JUMP JUMPDEST PUSH1 0x0 DUP2 PUSH1 0x0 ADD SLOAD SWAP1 POP SWAP2 SWAP1 POP JUMP JUMPDEST PUSH2 0x1649 DUP2 PUSH1 0x40 MLOAD PUSH1 0x24 ADD PUSH2 0x15C7 SWAP2 SWAP1 PUSH2 0x329C JUMP JUMPDEST PUSH1 0x40 MLOAD PUSH1 0x20 DUP2 DUP4 SUB SUB DUP2 MSTORE SWAP1 PUSH1 0x40 MSTORE PUSH32 0xF5B1BBA900000000000000000000000000000000000000000000000000000000 PUSH28 0xFFFFFFFFFFFFFFFFFFFFFFFFFFFFFFFFFFFFFFFFFFFFFFFFFFFFFFFF NOT AND PUSH1 0x20 DUP3 ADD DUP1 MLOAD PUSH28 0xFFFFFFFFFFFFFFFFFFFFFFFFFFFFFFFFFFFFFFFFFFFFFFFFFFFFFFFF DUP4 DUP2 DUP4 AND OR DUP4 MSTORE POP POP POP POP PUSH2 0x2200 JUMP JUMPDEST POP JUMP JUMPDEST PUSH1 0x0 PUSH32 0x1FFC9A700000000000000000000000000000000000000000000000000000000 PUSH28 0xFFFFFFFFFFFFFFFFFFFFFFFFFFFFFFFFFFFFFFFFFFFFFFFFFFFFFFFF NOT AND DUP3 PUSH28 0xFFFFFFFFFFFFFFFFFFFFFFFFFFFFFFFFFFFFFFFFFFFFFFFFFFFFFFFF NOT AND EQ SWAP1 POP SWAP2 SWAP1 POP JUMP JUMPDEST PUSH1 0x0 DUP1 PUSH20 0xFFFFFFFFFFFFFFFFFFFFFFFFFFFFFFFFFFFFFFFF AND PUSH1 0x2 PUSH1 0x0 DUP5 DUP2 MSTORE PUSH1 0x20 ADD SWAP1 DUP2 MSTORE PUSH1 0x20 ADD PUSH1 0x0 KECCAK256 PUSH1 0x0 SWAP1 SLOAD SWAP1 PUSH2 0x100 EXP SWAP1 DIV PUSH20 0xFFFFFFFFFFFFFFFFFFFFFFFFFFFFFFFFFFFFFFFF AND PUSH20 0xFFFFFFFFFFFFFFFFFFFFFFFFFFFFFFFFFFFFFFFF AND EQ ISZERO SWAP1 POP SWAP2 SWAP1 POP JUMP JUMPDEST PUSH1 0x0 CALLER SWAP1 POP SWAP1 JUMP JUMPDEST DUP2 PUSH1 0x4 PUSH1 0x0 DUP4 DUP2 MSTORE PUSH1 0x20 ADD SWAP1 DUP2 MSTORE PUSH1 0x20 ADD PUSH1 0x0 KECCAK256 PUSH1 0x0 PUSH2 0x100 EXP DUP2 SLOAD DUP2 PUSH20 0xFFFFFFFFFFFFFFFFFFFFFFFFFFFFFFFFFFFFFFFF MUL NOT AND SWAP1 DUP4 PUSH20 0xFFFFFFFFFFFFFFFFFFFFFFFFFFFFFFFFFFFFFFFF AND MUL OR SWAP1 SSTORE POP DUP1 DUP3 PUSH20 0xFFFFFFFFFFFFFFFFFFFFFFFFFFFFFFFFFFFFFFFF AND PUSH2 0x179D DUP4 PUSH2 0xD33 JUMP JUMPDEST PUSH20 0xFFFFFFFFFFFFFFFFFFFFFFFFFFFFFFFFFFFFFFFF AND PUSH32 0x8C5BE1E5EBEC7D5BD14F71427D1E84F3DD0314C0F7B2291E5B200AC8C7C3B925 PUSH1 0x40 MLOAD PUSH1 0x40 MLOAD DUP1 SWAP2 SUB SWAP1 LOG4 POP POP JUMP JUMPDEST PUSH1 0x60 PUSH1 0x0 DUP3 EQ ISZERO PUSH2 0x182B JUMPI PUSH1 0x40 MLOAD DUP1 PUSH1 0x40 ADD PUSH1 0x40 MSTORE DUP1 PUSH1 0x1 DUP2 MSTORE PUSH1 0x20 ADD PUSH32 0x3000000000000000000000000000000000000000000000000000000000000000 DUP2 MSTORE POP SWAP1 POP PUSH2 0x193F JUMP JUMPDEST PUSH1 0x0 DUP3 SWAP1 POP PUSH1 0x0 JUMPDEST PUSH1 0x0 DUP3 EQ PUSH2 0x185D JUMPI DUP1 DUP1 PUSH2 0x1846 SWAP1 PUSH2 0x357E JUMP JUMPDEST SWAP2 POP POP PUSH1 0xA DUP3 PUSH2 0x1856 SWAP2 SWAP1 PUSH2 0x33A6 JUMP JUMPDEST SWAP2 POP PUSH2 0x1833 JUMP JUMPDEST PUSH1 0x0 DUP2 PUSH8 0xFFFFFFFFFFFFFFFF DUP2 GT ISZERO PUSH2 0x1879 JUMPI PUSH2 0x1878 PUSH2 0x36B4 JUMP JUMPDEST JUMPDEST PUSH1 0x40 MLOAD SWAP1 DUP1 DUP3 MSTORE DUP1 PUSH1 0x1F ADD PUSH1 0x1F NOT AND PUSH1 0x20 ADD DUP3 ADD PUSH1 0x40 MSTORE DUP1 ISZERO PUSH2 0x18AB JUMPI DUP2 PUSH1 0x20 ADD PUSH1 0x1 DUP3 MUL DUP1 CALLDATASIZE DUP4 CALLDATACOPY DUP1 DUP3 ADD SWAP2 POP POP SWAP1 POP JUMPDEST POP SWAP1 POP JUMPDEST PUSH1 0x0 DUP6 EQ PUSH2 0x1938 JUMPI PUSH1 0x1 DUP3 PUSH2 0x18C4 SWAP2 SWAP1 PUSH2 0x3431 JUMP JUMPDEST SWAP2 POP PUSH1 0xA DUP6 PUSH2 0x18D3 SWAP2 SWAP1 PUSH2 0x35C7 JUMP JUMPDEST PUSH1 0x30 PUSH2 0x18DF SWAP2 SWAP1 PUSH2 0x3350 JUMP JUMPDEST PUSH1 0xF8 SHL DUP2 DUP4 DUP2 MLOAD DUP2 LT PUSH2 0x18F5 JUMPI PUSH2 0x18F4 PUSH2 0x3685 JUMP JUMPDEST JUMPDEST PUSH1 0x20 ADD ADD SWAP1 PUSH31 0xFFFFFFFFFFFFFFFFFFFFFFFFFFFFFFFFFFFFFFFFFFFFFFFFFFFFFFFFFFFFFF NOT AND SWAP1 DUP2 PUSH1 0x0 BYTE SWAP1 MSTORE8 POP PUSH1 0xA DUP6 PUSH2 0x1931 SWAP2 SWAP1 PUSH2 0x33A6 JUMP JUMPDEST SWAP5 POP PUSH2 0x18AF JUMP JUMPDEST DUP1 SWAP4 POP POP POP POP JUMPDEST SWAP2 SWAP1 POP JUMP JUMPDEST PUSH1 0x60 PUSH1 0x0 DUP3 MLOAD SWAP1 POP PUSH1 0x0 DUP2 EQ ISZERO PUSH2 0x196D JUMPI PUSH1 0x40 MLOAD DUP1 PUSH1 0x20 ADD PUSH1 0x40 MSTORE DUP1 PUSH1 0x0 DUP2 MSTORE POP SWAP2 POP POP PUSH2 0x1AD7 JUMP JUMPDEST PUSH1 0x0 PUSH1 0x3 PUSH1 0x2 DUP4 PUSH2 0x197E SWAP2 SWAP1 PUSH2 0x3350 JUMP JUMPDEST PUSH2 0x1988 SWAP2 SWAP1 PUSH2 0x33A6 JUMP JUMPDEST PUSH1 0x4 PUSH2 0x1994 SWAP2 SWAP1 PUSH2 0x33D7 JUMP JUMPDEST SWAP1 POP PUSH1 0x0 PUSH1 0x20 DUP3 PUSH2 0x19A5 SWAP2 SWAP1 PUSH2 0x3350 JUMP JUMPDEST PUSH8 0xFFFFFFFFFFFFFFFF DUP2 GT ISZERO PUSH2 0x19BE JUMPI PUSH2 0x19BD PUSH2 0x36B4 JUMP JUMPDEST JUMPDEST PUSH1 0x40 MLOAD SWAP1 DUP1 DUP3 MSTORE DUP1 PUSH1 0x1F ADD PUSH1 0x1F NOT AND PUSH1 0x20 ADD DUP3 ADD PUSH1 0x40 MSTORE DUP1 ISZERO PUSH2 0x19F0 JUMPI DUP2 PUSH1 0x20 ADD PUSH1 0x1 DUP3 MUL DUP1 CALLDATASIZE DUP4 CALLDATACOPY DUP1 DUP3 ADD SWAP2 POP POP SWAP1 POP JUMPDEST POP SWAP1 POP PUSH1 0x0 PUSH1 0x40 MLOAD DUP1 PUSH1 0x60 ADD PUSH1 0x40 MSTORE DUP1 PUSH1 0x40 DUP2 MSTORE PUSH1 0x20 ADD PUSH2 0x3F97 PUSH1 0x40 SWAP2 CODECOPY SWAP1 POP PUSH1 0x1 DUP2 ADD PUSH1 0x20 DUP4 ADD PUSH1 0x0 JUMPDEST DUP7 DUP2 LT ISZERO PUSH2 0x1A94 JUMPI PUSH1 0x3 DUP2 ADD SWAP1 POP PUSH3 0xFFFFFF DUP2 DUP11 ADD MLOAD AND PUSH1 0x3F DUP2 PUSH1 0x12 SHR AND DUP5 ADD MLOAD DUP1 PUSH1 0x8 SHL SWAP1 POP PUSH1 0xFF PUSH1 0x3F DUP4 PUSH1 0xC SHR AND DUP7 ADD MLOAD AND DUP2 ADD SWAP1 POP DUP1 PUSH1 0x8 SHL SWAP1 POP PUSH1 0xFF PUSH1 0x3F DUP4 PUSH1 0x6 SHR AND DUP7 ADD MLOAD AND DUP2 ADD SWAP1 POP DUP1 PUSH1 0x8 SHL SWAP1 POP PUSH1 0xFF PUSH1 0x3F DUP4 AND DUP7 ADD MLOAD AND DUP2 ADD SWAP1 POP DUP1 PUSH1 0xE0 SHL SWAP1 POP DUP1 DUP5 MSTORE PUSH1 0x4 DUP5 ADD SWAP4 POP POP POP PUSH2 0x1A1B JUMP JUMPDEST POP PUSH1 0x3 DUP7 MOD PUSH1 0x1 DUP2 EQ PUSH2 0x1AAE JUMPI PUSH1 0x2 DUP2 EQ PUSH2 0x1ABE JUMPI PUSH2 0x1AC9 JUMP JUMPDEST PUSH2 0x3D3D PUSH1 0xF0 SHL PUSH1 0x2 DUP4 SUB MSTORE PUSH2 0x1AC9 JUMP JUMPDEST PUSH1 0x3D PUSH1 0xF8 SHL PUSH1 0x1 DUP4 SUB MSTORE JUMPDEST POP DUP5 DUP5 MSTORE POP POP DUP2 SWAP5 POP POP POP POP POP JUMPDEST SWAP2 SWAP1 POP JUMP JUMPDEST PUSH2 0x1AF6 DUP3 DUP3 PUSH1 0x40 MLOAD DUP1 PUSH1 0x20 ADD PUSH1 0x40 MSTORE DUP1 PUSH1 0x0 DUP2 MSTORE POP PUSH2 0x2229 JUMP JUMPDEST POP POP JUMP JUMPDEST PUSH2 0x1B03 DUP3 PUSH2 0x16B6 JUMP JUMPDEST PUSH2 0x1B42 JUMPI PUSH1 0x40 MLOAD PUSH32 0x8C379A000000000000000000000000000000000000000000000000000000000 DUP2 MSTORE PUSH1 0x4 ADD PUSH2 0x1B39 SWAP1 PUSH2 0x319C JUMP JUMPDEST PUSH1 0x40 MLOAD DUP1 SWAP2 SUB SWAP1 REVERT JUMPDEST DUP1 PUSH1 0x6 PUSH1 0x0 DUP5 DUP2 MSTORE PUSH1 0x20 ADD SWAP1 DUP2 MSTORE PUSH1 0x20 ADD PUSH1 0x0 KECCAK256 SWAP1 DUP1 MLOAD SWAP1 PUSH1 0x20 ADD SWAP1 PUSH2 0x1B69 SWAP3 SWAP2 SWAP1 PUSH2 0x2622 JUMP JUMPDEST POP POP POP JUMP JUMPDEST PUSH1 0x0 PUSH2 0x1B79 DUP3 PUSH2 0x16B6 JUMP JUMPDEST PUSH2 0x1BB8 JUMPI PUSH1 0x40 MLOAD PUSH32 0x8C379A000000000000000000000000000000000000000000000000000000000 DUP2 MSTORE PUSH1 0x4 ADD PUSH2 0x1BAF SWAP1 PUSH2 0x311C JUMP JUMPDEST PUSH1 0x40 MLOAD DUP1 SWAP2 SUB SWAP1 REVERT JUMPDEST PUSH1 0x0 PUSH2 0x1BC3 DUP4 PUSH2 0xD33 JUMP JUMPDEST SWAP1 POP DUP1 PUSH20 0xFFFFFFFFFFFFFFFFFFFFFFFFFFFFFFFFFFFFFFFF AND DUP5 PUSH20 0xFFFFFFFFFFFFFFFFFFFFFFFFFFFFFFFFFFFFFFFF AND EQ DUP1 PUSH2 0x1C32 JUMPI POP DUP4 PUSH20 0xFFFFFFFFFFFFFFFFFFFFFFFFFFFFFFFFFFFFFFFF AND PUSH2 0x1C1A DUP5 PUSH2 0x851 JUMP JUMPDEST PUSH20 0xFFFFFFFFFFFFFFFFFFFFFFFFFFFFFFFFFFFFFFFF AND EQ JUMPDEST DUP1 PUSH2 0x1C43 JUMPI POP PUSH2 0x1C42 DUP2 DUP6 PUSH2 0x1357 JUMP JUMPDEST JUMPDEST SWAP2 POP POP SWAP3 SWAP2 POP POP JUMP JUMPDEST DUP3 PUSH20 0xFFFFFFFFFFFFFFFFFFFFFFFFFFFFFFFFFFFFFFFF AND PUSH2 0x1C6C DUP3 PUSH2 0xD33 JUMP JUMPDEST PUSH20 0xFFFFFFFFFFFFFFFFFFFFFFFFFFFFFFFFFFFFFFFF AND EQ PUSH2 0x1CC2 JUMPI PUSH1 0x40 MLOAD PUSH32 0x8C379A000000000000000000000000000000000000000000000000000000000 DUP2 MSTORE PUSH1 0x4 ADD PUSH2 0x1CB9 SWAP1 PUSH2 0x307C JUMP JUMPDEST PUSH1 0x40 MLOAD DUP1 SWAP2 SUB SWAP1 REVERT JUMPDEST PUSH1 0x0 PUSH20 0xFFFFFFFFFFFFFFFFFFFFFFFFFFFFFFFFFFFFFFFF AND DUP3 PUSH20 0xFFFFFFFFFFFFFFFFFFFFFFFFFFFFFFFFFFFFFFFF AND EQ ISZERO PUSH2 0x1D32 JUMPI PUSH1 0x40 MLOAD PUSH32 0x8C379A000000000000000000000000000000000000000000000000000000000 DUP2 MSTORE PUSH1 0x4 ADD PUSH2 0x1D29 SWAP1 PUSH2 0x30BC JUMP JUMPDEST PUSH1 0x40 MLOAD DUP1 SWAP2 SUB SWAP1 REVERT JUMPDEST PUSH2 0x1D3D DUP4 DUP4 DUP4 PUSH2 0x2284 JUMP JUMPDEST PUSH2 0x1D48 PUSH1 0x0 DUP3 PUSH2 0x172A JUMP JUMPDEST PUSH1 0x1 PUSH1 0x3 PUSH1 0x0 DUP6 PUSH20 0xFFFFFFFFFFFFFFFFFFFFFFFFFFFFFFFFFFFFFFFF AND PUSH20 0xFFFFFFFFFFFFFFFFFFFFFFFFFFFFFFFFFFFFFFFF AND DUP2 MSTORE PUSH1 0x20 ADD SWAP1 DUP2 MSTORE PUSH1 0x20 ADD PUSH1 0x0 KECCAK256 PUSH1 0x0 DUP3 DUP3 SLOAD PUSH2 0x1D98 SWAP2 SWAP1 PUSH2 0x3431 JUMP JUMPDEST SWAP3 POP POP DUP2 SWAP1 SSTORE POP PUSH1 0x1 PUSH1 0x3 PUSH1 0x0 DUP5 PUSH20 0xFFFFFFFFFFFFFFFFFFFFFFFFFFFFFFFFFFFFFFFF AND PUSH20 0xFFFFFFFFFFFFFFFFFFFFFFFFFFFFFFFFFFFFFFFF AND DUP2 MSTORE PUSH1 0x20 ADD SWAP1 DUP2 MSTORE PUSH1 0x20 ADD PUSH1 0x0 KECCAK256 PUSH1 0x0 DUP3 DUP3 SLOAD PUSH2 0x1DEF SWAP2 SWAP1 PUSH2 0x3350 JUMP JUMPDEST SWAP3 POP POP DUP2 SWAP1 SSTORE POP DUP2 PUSH1 0x2 PUSH1 0x0 DUP4 DUP2 MSTORE PUSH1 0x20 ADD SWAP1 DUP2 MSTORE PUSH1 0x20 ADD PUSH1 0x0 KECCAK256 PUSH1 0x0 PUSH2 0x100 EXP DUP2 SLOAD DUP2 PUSH20 0xFFFFFFFFFFFFFFFFFFFFFFFFFFFFFFFFFFFFFFFF MUL NOT AND SWAP1 DUP4 PUSH20 0xFFFFFFFFFFFFFFFFFFFFFFFFFFFFFFFFFFFFFFFF AND MUL OR SWAP1 SSTORE POP DUP1 DUP3 PUSH20 0xFFFFFFFFFFFFFFFFFFFFFFFFFFFFFFFFFFFFFFFF AND DUP5 PUSH20 0xFFFFFFFFFFFFFFFFFFFFFFFFFFFFFFFFFFFFFFFF AND PUSH32 0xDDF252AD1BE2C89B69C2B068FC378DAA952BA7F163C4A11628F55A4DF523B3EF PUSH1 0x40 MLOAD PUSH1 0x40 MLOAD DUP1 SWAP2 SUB SWAP1 LOG4 PUSH2 0x1EAE DUP4 DUP4 DUP4 PUSH2 0x2289 JUMP JUMPDEST POP POP POP JUMP JUMPDEST PUSH1 0x0 PUSH1 0x7 PUSH1 0x0 SWAP1 SLOAD SWAP1 PUSH2 0x100 EXP SWAP1 DIV PUSH20 0xFFFFFFFFFFFFFFFFFFFFFFFFFFFFFFFFFFFFFFFF AND SWAP1 POP DUP2 PUSH1 0x7 PUSH1 0x0 PUSH2 0x100 EXP DUP2 SLOAD DUP2 PUSH20 0xFFFFFFFFFFFFFFFFFFFFFFFFFFFFFFFFFFFFFFFF MUL NOT AND SWAP1 DUP4 PUSH20 0xFFFFFFFFFFFFFFFFFFFFFFFFFFFFFFFFFFFFFFFF AND MUL OR SWAP1 SSTORE POP DUP2 PUSH20 0xFFFFFFFFFFFFFFFFFFFFFFFFFFFFFFFFFFFFFFFF AND DUP2 PUSH20 0xFFFFFFFFFFFFFFFFFFFFFFFFFFFFFFFFFFFFFFFF AND PUSH32 0x8BE0079C531659141344CD1FD0A4F28419497F9722A3DAAFE3B4186F6B6457E0 PUSH1 0x40 MLOAD PUSH1 0x40 MLOAD DUP1 SWAP2 SUB SWAP1 LOG3 POP POP JUMP JUMPDEST DUP2 PUSH20 0xFFFFFFFFFFFFFFFFFFFFFFFFFFFFFFFFFFFFFFFF AND DUP4 PUSH20 0xFFFFFFFFFFFFFFFFFFFFFFFFFFFFFFFFFFFFFFFF AND EQ ISZERO PUSH2 0x1FE8 JUMPI PUSH1 0x40 MLOAD PUSH32 0x8C379A000000000000000000000000000000000000000000000000000000000 DUP2 MSTORE PUSH1 0x4 ADD PUSH2 0x1FDF SWAP1 PUSH2 0x30DC JUMP JUMPDEST PUSH1 0x40 MLOAD DUP1 SWAP2 SUB SWAP1 REVERT JUMPDEST DUP1 PUSH1 0x5 PUSH1 0x0 DUP6 PUSH20 0xFFFFFFFFFFFFFFFFFFFFFFFFFFFFFFFFFFFFFFFF AND PUSH20 0xFFFFFFFFFFFFFFFFFFFFFFFFFFFFFFFFFFFFFFFF AND DUP2 MSTORE PUSH1 0x20 ADD SWAP1 DUP2 MSTORE PUSH1 0x20 ADD PUSH1 0x0 KECCAK256 PUSH1 0x0 DUP5 PUSH20 0xFFFFFFFFFFFFFFFFFFFFFFFFFFFFFFFFFFFFFFFF AND PUSH20 0xFFFFFFFFFFFFFFFFFFFFFFFFFFFFFFFFFFFFFFFF AND DUP2 MSTORE PUSH1 0x20 ADD SWAP1 DUP2 MSTORE PUSH1 0x20 ADD PUSH1 0x0 KECCAK256 PUSH1 0x0 PUSH2 0x100 EXP DUP2 SLOAD DUP2 PUSH1 0xFF MUL NOT AND SWAP1 DUP4 ISZERO ISZERO MUL OR SWAP1 SSTORE POP DUP2 PUSH20 0xFFFFFFFFFFFFFFFFFFFFFFFFFFFFFFFFFFFFFFFF AND DUP4 PUSH20 0xFFFFFFFFFFFFFFFFFFFFFFFFFFFFFFFFFFFFFFFF AND PUSH32 0x17307EAB39AB6107E8899845AD3D59BD9653F200F220920489CA2B5937696C31 DUP4 PUSH1 0x40 MLOAD PUSH2 0x20D9 SWAP2 SWAP1 PUSH2 0x2FBF JUMP JUMPDEST PUSH1 0x40 MLOAD DUP1 SWAP2 SUB SWAP1 LOG3 POP POP POP JUMP JUMPDEST PUSH2 0x20F1 DUP5 DUP5 DUP5 PUSH2 0x1C4C JUMP JUMPDEST PUSH2 0x20FD DUP5 DUP5 DUP5 DUP5 PUSH2 0x228E JUMP JUMPDEST PUSH2 0x213C JUMPI PUSH1 0x40 MLOAD PUSH32 0x8C379A000000000000000000000000000000000000000000000000000000000 DUP2 MSTORE PUSH1 0x4 ADD PUSH2 0x2133 SWAP1 PUSH2 0x303C JUMP JUMPDEST PUSH1 0x40 MLOAD DUP1 SWAP2 SUB SWAP1 REVERT JUMPDEST POP POP POP POP JUMP JUMPDEST PUSH1 0x60 PUSH1 0x40 MLOAD DUP1 PUSH1 0x20 ADD PUSH1 0x40 MSTORE DUP1 PUSH1 0x0 DUP2 MSTORE POP SWAP1 POP SWAP1 JUMP JUMPDEST PUSH1 0x60 PUSH2 0x2164 DUP3 PUSH2 0x16B6 JUMP JUMPDEST PUSH2 0x21A3 JUMPI PUSH1 0x40 MLOAD PUSH32 0x8C379A000000000000000000000000000000000000000000000000000000000 DUP2 MSTORE PUSH1 0x4 ADD PUSH2 0x219A SWAP1 PUSH2 0x323C JUMP JUMPDEST PUSH1 0x40 MLOAD DUP1 SWAP2 SUB SWAP1 REVERT JUMPDEST PUSH1 0x0 PUSH2 0x21AD PUSH2 0x2142 JUMP JUMPDEST SWAP1 POP PUSH1 0x0 DUP2 MLOAD GT PUSH2 0x21CD JUMPI PUSH1 0x40 MLOAD DUP1 PUSH1 0x20 ADD PUSH1 0x40 MSTORE DUP1 PUSH1 0x0 DUP2 MSTORE POP PUSH2 0x21F8 JUMP JUMPDEST DUP1 PUSH2 0x21D7 DUP5 PUSH2 0x17E3 JUMP JUMPDEST PUSH1 0x40 MLOAD PUSH1 0x20 ADD PUSH2 0x21E8 SWAP3 SWAP2 SWAP1 PUSH2 0x2E8C JUMP JUMPDEST PUSH1 0x40 MLOAD PUSH1 0x20 DUP2 DUP4 SUB SUB DUP2 MSTORE SWAP1 PUSH1 0x40 MSTORE JUMPDEST SWAP2 POP POP SWAP2 SWAP1 POP JUMP JUMPDEST PUSH1 0x0 DUP2 MLOAD SWAP1 POP PUSH1 0x0 PUSH11 0x636F6E736F6C652E6C6F67 SWAP1 POP PUSH1 0x20 DUP4 ADD PUSH1 0x0 DUP1 DUP5 DUP4 DUP6 GAS STATICCALL POP POP POP POP POP JUMP JUMPDEST PUSH2 0x2233 DUP4 DUP4 PUSH2 0x2425 JUMP JUMPDEST PUSH2 0x2240 PUSH1 0x0 DUP5 DUP5 DUP5 PUSH2 0x228E JUMP JUMPDEST PUSH2 0x227F JUMPI PUSH1 0x40 MLOAD PUSH32 0x8C379A000000000000000000000000000000000000000000000000000000000 DUP2 MSTORE PUSH1 0x4 ADD PUSH2 0x2276 SWAP1 PUSH2 0x303C JUMP JUMPDEST PUSH1 0x40 MLOAD DUP1 SWAP2 SUB SWAP1 REVERT JUMPDEST POP POP POP JUMP JUMPDEST POP POP POP JUMP JUMPDEST POP POP POP JUMP JUMPDEST PUSH1 0x0 PUSH2 0x22AF DUP5 PUSH20 0xFFFFFFFFFFFFFFFFFFFFFFFFFFFFFFFFFFFFFFFF AND PUSH2 0x25FF JUMP JUMPDEST ISZERO PUSH2 0x2418 JUMPI DUP4 PUSH20 0xFFFFFFFFFFFFFFFFFFFFFFFFFFFFFFFFFFFFFFFF AND PUSH4 0x150B7A02 PUSH2 0x22D8 PUSH2 0x1722 JUMP JUMPDEST DUP8 DUP7 DUP7 PUSH1 0x40 MLOAD DUP6 PUSH4 0xFFFFFFFF AND PUSH1 0xE0 SHL DUP2 MSTORE PUSH1 0x4 ADD PUSH2 0x22FA SWAP5 SWAP4 SWAP3 SWAP2 SWAP1 PUSH2 0x2F73 JUMP JUMPDEST PUSH1 0x20 PUSH1 0x40 MLOAD DUP1 DUP4 SUB DUP2 PUSH1 0x0 DUP8 DUP1 EXTCODESIZE ISZERO DUP1 ISZERO PUSH2 0x2314 JUMPI PUSH1 0x0 DUP1 REVERT JUMPDEST POP GAS CALL SWAP3 POP POP POP DUP1 ISZERO PUSH2 0x2345 JUMPI POP PUSH1 0x40 MLOAD RETURNDATASIZE PUSH1 0x1F NOT PUSH1 0x1F DUP3 ADD AND DUP3 ADD DUP1 PUSH1 0x40 MSTORE POP DUP2 ADD SWAP1 PUSH2 0x2342 SWAP2 SWAP1 PUSH2 0x298E JUMP JUMPDEST PUSH1 0x1 JUMPDEST PUSH2 0x23C8 JUMPI RETURNDATASIZE DUP1 PUSH1 0x0 DUP2 EQ PUSH2 0x2375 JUMPI PUSH1 0x40 MLOAD SWAP2 POP PUSH1 0x1F NOT PUSH1 0x3F RETURNDATASIZE ADD AND DUP3 ADD PUSH1 0x40 MSTORE RETURNDATASIZE DUP3 MSTORE RETURNDATASIZE PUSH1 0x0 PUSH1 0x20 DUP5 ADD RETURNDATACOPY PUSH2 0x237A JUMP JUMPDEST PUSH1 0x60 SWAP2 POP JUMPDEST POP PUSH1 0x0 DUP2 MLOAD EQ ISZERO PUSH2 0x23C0 JUMPI PUSH1 0x40 MLOAD PUSH32 0x8C379A000000000000000000000000000000000000000000000000000000000 DUP2 MSTORE PUSH1 0x4 ADD PUSH2 0x23B7 SWAP1 PUSH2 0x303C JUMP JUMPDEST PUSH1 0x40 MLOAD DUP1 SWAP2 SUB SWAP1 REVERT JUMPDEST DUP1 MLOAD DUP2 PUSH1 0x20 ADD REVERT JUMPDEST PUSH4 0x150B7A02 PUSH1 0xE0 SHL PUSH28 0xFFFFFFFFFFFFFFFFFFFFFFFFFFFFFFFFFFFFFFFFFFFFFFFFFFFFFFFF NOT AND DUP2 PUSH28 0xFFFFFFFFFFFFFFFFFFFFFFFFFFFFFFFFFFFFFFFFFFFFFFFFFFFFFFFF NOT AND EQ SWAP2 POP POP PUSH2 0x241D JUMP JUMPDEST PUSH1 0x1 SWAP1 POP JUMPDEST SWAP5 SWAP4 POP POP POP POP JUMP JUMPDEST PUSH1 0x0 PUSH20 0xFFFFFFFFFFFFFFFFFFFFFFFFFFFFFFFFFFFFFFFF AND DUP3 PUSH20 0xFFFFFFFFFFFFFFFFFFFFFFFFFFFFFFFFFFFFFFFF AND EQ ISZERO PUSH2 0x2495 JUMPI PUSH1 0x40 MLOAD PUSH32 0x8C379A000000000000000000000000000000000000000000000000000000000 DUP2 MSTORE PUSH1 0x4 ADD PUSH2 0x248C SWAP1 PUSH2 0x31BC JUMP JUMPDEST PUSH1 0x40 MLOAD DUP1 SWAP2 SUB SWAP1 REVERT JUMPDEST PUSH2 0x249E DUP2 PUSH2 0x16B6 JUMP JUMPDEST ISZERO PUSH2 0x24DE JUMPI PUSH1 0x40 MLOAD PUSH32 0x8C379A000000000000000000000000000000000000000000000000000000000 DUP2 MSTORE PUSH1 0x4 ADD PUSH2 0x24D5 SWAP1 PUSH2 0x309C JUMP JUMPDEST PUSH1 0x40 MLOAD DUP1 SWAP2 SUB SWAP1 REVERT JUMPDEST PUSH2 0x24EA PUSH1 0x0 DUP4 DUP4 PUSH2 0x2284 JUMP JUMPDEST PUSH1 0x1 PUSH1 0x3 PUSH1 0x0 DUP5 PUSH20 0xFFFFFFFFFFFFFFFFFFFFFFFFFFFFFFFFFFFFFFFF AND PUSH20 0xFFFFFFFFFFFFFFFFFFFFFFFFFFFFFFFFFFFFFFFF AND DUP2 MSTORE PUSH1 0x20 ADD SWAP1 DUP2 MSTORE PUSH1 0x20 ADD PUSH1 0x0 KECCAK256 PUSH1 0x0 DUP3 DUP3 SLOAD PUSH2 0x253A SWAP2 SWAP1 PUSH2 0x3350 JUMP JUMPDEST SWAP3 POP POP DUP2 SWAP1 SSTORE POP DUP2 PUSH1 0x2 PUSH1 0x0 DUP4 DUP2 MSTORE PUSH1 0x20 ADD SWAP1 DUP2 MSTORE PUSH1 0x20 ADD PUSH1 0x0 KECCAK256 PUSH1 0x0 PUSH2 0x100 EXP DUP2 SLOAD DUP2 PUSH20 0xFFFFFFFFFFFFFFFFFFFFFFFFFFFFFFFFFFFFFFFF MUL NOT AND SWAP1 DUP4 PUSH20 0xFFFFFFFFFFFFFFFFFFFFFFFFFFFFFFFFFFFFFFFF AND MUL OR SWAP1 SSTORE POP DUP1 DUP3 PUSH20 0xFFFFFFFFFFFFFFFFFFFFFFFFFFFFFFFFFFFFFFFF AND PUSH1 0x0 PUSH20 0xFFFFFFFFFFFFFFFFFFFFFFFFFFFFFFFFFFFFFFFF AND PUSH32 0xDDF252AD1BE2C89B69C2B068FC378DAA952BA7F163C4A11628F55A4DF523B3EF PUSH1 0x40 MLOAD PUSH1 0x40 MLOAD DUP1 SWAP2 SUB SWAP1 LOG4 PUSH2 0x25FB PUSH1 0x0 DUP4 DUP4 PUSH2 0x2289 JUMP JUMPDEST POP POP JUMP JUMPDEST PUSH1 0x0 DUP1 DUP3 PUSH20 0xFFFFFFFFFFFFFFFFFFFFFFFFFFFFFFFFFFFFFFFF AND EXTCODESIZE GT SWAP1 POP SWAP2 SWAP1 POP JUMP JUMPDEST DUP3 DUP1 SLOAD PUSH2 0x262E SWAP1 PUSH2 0x351B JUMP JUMPDEST SWAP1 PUSH1 0x0 MSTORE PUSH1 0x20 PUSH1 0x0 KECCAK256 SWAP1 PUSH1 0x1F ADD PUSH1 0x20 SWAP1 DIV DUP2 ADD SWAP3 DUP3 PUSH2 0x2650 JUMPI PUSH1 0x0 DUP6 SSTORE PUSH2 0x2697 JUMP JUMPDEST DUP3 PUSH1 0x1F LT PUSH2 0x2669 JUMPI DUP1 MLOAD PUSH1 0xFF NOT AND DUP4 DUP1 ADD OR DUP6 SSTORE PUSH2 0x2697 JUMP JUMPDEST DUP3 DUP1 ADD PUSH1 0x1 ADD DUP6 SSTORE DUP3 ISZERO PUSH2 0x2697 JUMPI SWAP2 DUP3 ADD JUMPDEST DUP3 DUP2 GT ISZERO PUSH2 0x2696 JUMPI DUP3 MLOAD DUP3 SSTORE SWAP2 PUSH1 0x20 ADD SWAP2 SWAP1 PUSH1 0x1 ADD SWAP1 PUSH2 0x267B JUMP JUMPDEST JUMPDEST POP SWAP1 POP PUSH2 0x26A4 SWAP2 SWAP1 PUSH2 0x26A8 JUMP JUMPDEST POP SWAP1 JUMP JUMPDEST JUMPDEST DUP1 DUP3 GT ISZERO PUSH2 0x26C1 JUMPI PUSH1 0x0 DUP2 PUSH1 0x0 SWAP1 SSTORE POP PUSH1 0x1 ADD PUSH2 0x26A9 JUMP JUMPDEST POP SWAP1 JUMP JUMPDEST PUSH1 0x0 PUSH2 0x26D8 PUSH2 0x26D3 DUP5 PUSH2 0x32DC JUMP JUMPDEST PUSH2 0x32B7 JUMP JUMPDEST SWAP1 POP DUP3 DUP2 MSTORE PUSH1 0x20 DUP2 ADD DUP5 DUP5 DUP5 ADD GT ISZERO PUSH2 0x26F4 JUMPI PUSH2 0x26F3 PUSH2 0x36E8 JUMP JUMPDEST JUMPDEST PUSH2 0x26FF DUP5 DUP3 DUP6 PUSH2 0x34D9 JUMP JUMPDEST POP SWAP4 SWAP3 POP POP POP JUMP JUMPDEST PUSH1 0x0 DUP2 CALLDATALOAD SWAP1 POP PUSH2 0x2716 DUP2 PUSH2 0x3F3A JUMP JUMPDEST SWAP3 SWAP2 POP POP JUMP JUMPDEST PUSH1 0x0 DUP2 CALLDATALOAD SWAP1 POP PUSH2 0x272B DUP2 PUSH2 0x3F51 JUMP JUMPDEST SWAP3 SWAP2 POP POP JUMP JUMPDEST PUSH1 0x0 DUP2 CALLDATALOAD SWAP1 POP PUSH2 0x2740 DUP2 PUSH2 0x3F68 JUMP JUMPDEST SWAP3 SWAP2 POP POP JUMP JUMPDEST PUSH1 0x0 DUP2 MLOAD SWAP1 POP PUSH2 0x2755 DUP2 PUSH2 0x3F68 JUMP JUMPDEST SWAP3 SWAP2 POP POP JUMP JUMPDEST PUSH1 0x0 DUP3 PUSH1 0x1F DUP4 ADD SLT PUSH2 0x2770 JUMPI PUSH2 0x276F PUSH2 0x36E3 JUMP JUMPDEST JUMPDEST DUP2 CALLDATALOAD PUSH2 0x2780 DUP5 DUP3 PUSH1 0x20 DUP7 ADD PUSH2 0x26C5 JUMP JUMPDEST SWAP2 POP POP SWAP3 SWAP2 POP POP JUMP JUMPDEST PUSH1 0x0 DUP2 CALLDATALOAD SWAP1 POP PUSH2 0x2798 DUP2 PUSH2 0x3F7F JUMP JUMPDEST SWAP3 SWAP2 POP POP JUMP JUMPDEST PUSH1 0x0 PUSH1 0x20 DUP3 DUP5 SUB SLT ISZERO PUSH2 0x27B4 JUMPI PUSH2 0x27B3 PUSH2 0x36F2 JUMP JUMPDEST JUMPDEST PUSH1 0x0 PUSH2 0x27C2 DUP5 DUP3 DUP6 ADD PUSH2 0x2707 JUMP JUMPDEST SWAP2 POP POP SWAP3 SWAP2 POP POP JUMP JUMPDEST PUSH1 0x0 DUP1 PUSH1 0x40 DUP4 DUP6 SUB SLT ISZERO PUSH2 0x27E2 JUMPI PUSH2 0x27E1 PUSH2 0x36F2 JUMP JUMPDEST JUMPDEST PUSH1 0x0 PUSH2 0x27F0 DUP6 DUP3 DUP7 ADD PUSH2 0x2707 JUMP JUMPDEST SWAP3 POP POP PUSH1 0x20 PUSH2 0x2801 DUP6 DUP3 DUP7 ADD PUSH2 0x2707 JUMP JUMPDEST SWAP2 POP POP SWAP3 POP SWAP3 SWAP1 POP JUMP JUMPDEST PUSH1 0x0 DUP1 PUSH1 0x0 PUSH1 0x60 DUP5 DUP7 SUB SLT ISZERO PUSH2 0x2824 JUMPI PUSH2 0x2823 PUSH2 0x36F2 JUMP JUMPDEST JUMPDEST PUSH1 0x0 PUSH2 0x2832 DUP7 DUP3 DUP8 ADD PUSH2 0x2707 JUMP JUMPDEST SWAP4 POP POP PUSH1 0x20 PUSH2 0x2843 DUP7 DUP3 DUP8 ADD PUSH2 0x2707 JUMP JUMPDEST SWAP3 POP POP PUSH1 0x40 PUSH2 0x2854 DUP7 DUP3 DUP8 ADD PUSH2 0x2789 JUMP JUMPDEST SWAP2 POP POP SWAP3 POP SWAP3 POP SWAP3 JUMP JUMPDEST PUSH1 0x0 DUP1 PUSH1 0x0 DUP1 PUSH1 0x80 DUP6 DUP8 SUB SLT ISZERO PUSH2 0x2878 JUMPI PUSH2 0x2877 PUSH2 0x36F2 JUMP JUMPDEST JUMPDEST PUSH1 0x0 PUSH2 0x2886 DUP8 DUP3 DUP9 ADD PUSH2 0x2707 JUMP JUMPDEST SWAP5 POP POP PUSH1 0x20 PUSH2 0x2897 DUP8 DUP3 DUP9 ADD PUSH2 0x2707 JUMP JUMPDEST SWAP4 POP POP PUSH1 0x40 PUSH2 0x28A8 DUP8 DUP3 DUP9 ADD PUSH2 0x2789 JUMP JUMPDEST SWAP3 POP POP PUSH1 0x60 DUP6 ADD CALLDATALOAD PUSH8 0xFFFFFFFFFFFFFFFF DUP2 GT ISZERO PUSH2 0x28C9 JUMPI PUSH2 0x28C8 PUSH2 0x36ED JUMP JUMPDEST JUMPDEST PUSH2 0x28D5 DUP8 DUP3 DUP9 ADD PUSH2 0x275B JUMP JUMPDEST SWAP2 POP POP SWAP3 SWAP6 SWAP2 SWAP5 POP SWAP3 POP JUMP JUMPDEST PUSH1 0x0 DUP1 PUSH1 0x40 DUP4 DUP6 SUB SLT ISZERO PUSH2 0x28F8 JUMPI PUSH2 0x28F7 PUSH2 0x36F2 JUMP JUMPDEST JUMPDEST PUSH1 0x0 PUSH2 0x2906 DUP6 DUP3 DUP7 ADD PUSH2 0x2707 JUMP JUMPDEST SWAP3 POP POP PUSH1 0x20 PUSH2 0x2917 DUP6 DUP3 DUP7 ADD PUSH2 0x271C JUMP JUMPDEST SWAP2 POP POP SWAP3 POP SWAP3 SWAP1 POP JUMP JUMPDEST PUSH1 0x0 DUP1 PUSH1 0x40 DUP4 DUP6 SUB SLT ISZERO PUSH2 0x2938 JUMPI PUSH2 0x2937 PUSH2 0x36F2 JUMP JUMPDEST JUMPDEST PUSH1 0x0 PUSH2 0x2946 DUP6 DUP3 DUP7 ADD PUSH2 0x2707 JUMP JUMPDEST SWAP3 POP POP PUSH1 0x20 PUSH2 0x2957 DUP6 DUP3 DUP7 ADD PUSH2 0x2789 JUMP JUMPDEST SWAP2 POP POP SWAP3 POP SWAP3 SWAP1 POP JUMP JUMPDEST PUSH1 0x0 PUSH1 0x20 DUP3 DUP5 SUB SLT ISZERO PUSH2 0x2977 JUMPI PUSH2 0x2976 PUSH2 0x36F2 JUMP JUMPDEST JUMPDEST PUSH1 0x0 PUSH2 0x2985 DUP5 DUP3 DUP6 ADD PUSH2 0x2731 JUMP JUMPDEST SWAP2 POP POP SWAP3 SWAP2 POP POP JUMP JUMPDEST PUSH1 0x0 PUSH1 0x20 DUP3 DUP5 SUB SLT ISZERO PUSH2 0x29A4 JUMPI PUSH2 0x29A3 PUSH2 0x36F2 JUMP JUMPDEST JUMPDEST PUSH1 0x0 PUSH2 0x29B2 DUP5 DUP3 DUP6 ADD PUSH2 0x2746 JUMP JUMPDEST SWAP2 POP POP SWAP3 SWAP2 POP POP JUMP JUMPDEST PUSH1 0x0 PUSH1 0x20 DUP3 DUP5 SUB SLT ISZERO PUSH2 0x29D1 JUMPI PUSH2 0x29D0 PUSH2 0x36F2 JUMP JUMPDEST JUMPDEST PUSH1 0x0 PUSH2 0x29DF DUP5 DUP3 DUP6 ADD PUSH2 0x2789 JUMP JUMPDEST SWAP2 POP POP SWAP3 SWAP2 POP POP JUMP JUMPDEST PUSH2 0x29F1 DUP2 PUSH2 0x3465 JUMP JUMPDEST DUP3 MSTORE POP POP JUMP JUMPDEST PUSH2 0x2A00 DUP2 PUSH2 0x3477 JUMP JUMPDEST DUP3 MSTORE POP POP JUMP JUMPDEST PUSH1 0x0 PUSH2 0x2A11 DUP3 PUSH2 0x330D JUMP JUMPDEST PUSH2 0x2A1B DUP2 DUP6 PUSH2 0x3323 JUMP JUMPDEST SWAP4 POP PUSH2 0x2A2B DUP2 DUP6 PUSH1 0x20 DUP7 ADD PUSH2 0x34E8 JUMP JUMPDEST PUSH2 0x2A34 DUP2 PUSH2 0x36F7 JUMP JUMPDEST DUP5 ADD SWAP2 POP POP SWAP3 SWAP2 POP POP JUMP JUMPDEST PUSH1 0x0 PUSH2 0x2A4A DUP3 PUSH2 0x3318 JUMP JUMPDEST PUSH2 0x2A54 DUP2 DUP6 PUSH2 0x3334 JUMP JUMPDEST SWAP4 POP PUSH2 0x2A64 DUP2 DUP6 PUSH1 0x20 DUP7 ADD PUSH2 0x34E8 JUMP JUMPDEST PUSH2 0x2A6D DUP2 PUSH2 0x36F7 JUMP JUMPDEST DUP5 ADD SWAP2 POP POP SWAP3 SWAP2 POP POP JUMP JUMPDEST PUSH1 0x0 PUSH2 0x2A83 DUP3 PUSH2 0x3318 JUMP JUMPDEST PUSH2 0x2A8D DUP2 DUP6 PUSH2 0x3345 JUMP JUMPDEST SWAP4 POP PUSH2 0x2A9D DUP2 DUP6 PUSH1 0x20 DUP7 ADD PUSH2 0x34E8 JUMP JUMPDEST DUP1 DUP5 ADD SWAP2 POP POP SWAP3 SWAP2 POP POP JUMP JUMPDEST PUSH1 0x0 PUSH2 0x2AB6 PUSH1 0x18 DUP4 PUSH2 0x3334 JUMP JUMPDEST SWAP2 POP PUSH2 0x2AC1 DUP3 PUSH2 0x3708 JUMP JUMPDEST PUSH1 0x20 DUP3 ADD SWAP1 POP SWAP2 SWAP1 POP JUMP JUMPDEST PUSH1 0x0 PUSH2 0x2AD9 PUSH1 0xF DUP4 PUSH2 0x3334 JUMP JUMPDEST SWAP2 POP PUSH2 0x2AE4 DUP3 PUSH2 0x3731 JUMP JUMPDEST PUSH1 0x20 DUP3 ADD SWAP1 POP SWAP2 SWAP1 POP JUMP JUMPDEST PUSH1 0x0 PUSH2 0x2AFC PUSH1 0x32 DUP4 PUSH2 0x3334 JUMP JUMPDEST SWAP2 POP PUSH2 0x2B07 DUP3 PUSH2 0x375A JUMP JUMPDEST PUSH1 0x40 DUP3 ADD SWAP1 POP SWAP2 SWAP1 POP JUMP JUMPDEST PUSH1 0x0 PUSH2 0x2B1F PUSH1 0x26 DUP4 PUSH2 0x3334 JUMP JUMPDEST SWAP2 POP PUSH2 0x2B2A DUP3 PUSH2 0x37A9 JUMP JUMPDEST PUSH1 0x40 DUP3 ADD SWAP1 POP SWAP2 SWAP1 POP JUMP JUMPDEST PUSH1 0x0 PUSH2 0x2B42 PUSH1 0x42 DUP4 PUSH2 0x3345 JUMP JUMPDEST SWAP2 POP PUSH2 0x2B4D DUP3 PUSH2 0x37F8 JUMP JUMPDEST PUSH1 0x42 DUP3 ADD SWAP1 POP SWAP2 SWAP1 POP JUMP JUMPDEST PUSH1 0x0 PUSH2 0x2B65 PUSH1 0x25 DUP4 PUSH2 0x3334 JUMP JUMPDEST SWAP2 POP PUSH2 0x2B70 DUP3 PUSH2 0x386D JUMP JUMPDEST PUSH1 0x40 DUP3 ADD SWAP1 POP SWAP2 SWAP1 POP JUMP JUMPDEST PUSH1 0x0 PUSH2 0x2B88 PUSH1 0x1C DUP4 PUSH2 0x3334 JUMP JUMPDEST SWAP2 POP PUSH2 0x2B93 DUP3 PUSH2 0x38BC JUMP JUMPDEST PUSH1 0x20 DUP3 ADD SWAP1 POP SWAP2 SWAP1 POP JUMP JUMPDEST PUSH1 0x0 PUSH2 0x2BAB PUSH1 0x6D DUP4 PUSH2 0x3345 JUMP JUMPDEST SWAP2 POP PUSH2 0x2BB6 DUP3 PUSH2 0x38E5 JUMP JUMPDEST PUSH1 0x6D DUP3 ADD SWAP1 POP SWAP2 SWAP1 POP JUMP JUMPDEST PUSH1 0x0 PUSH2 0x2BCE PUSH1 0x24 DUP4 PUSH2 0x3334 JUMP JUMPDEST SWAP2 POP PUSH2 0x2BD9 DUP3 PUSH2 0x3980 JUMP JUMPDEST PUSH1 0x40 DUP3 ADD SWAP1 POP SWAP2 SWAP1 POP JUMP JUMPDEST PUSH1 0x0 PUSH2 0x2BF1 PUSH1 0x19 DUP4 PUSH2 0x3334 JUMP JUMPDEST SWAP2 POP PUSH2 0x2BFC DUP3 PUSH2 0x39CF JUMP JUMPDEST PUSH1 0x20 DUP3 ADD SWAP1 POP SWAP2 SWAP1 POP JUMP JUMPDEST PUSH1 0x0 PUSH2 0x2C14 PUSH1 0x12 DUP4 PUSH2 0x3334 JUMP JUMPDEST SWAP2 POP PUSH2 0x2C1F DUP3 PUSH2 0x39F8 JUMP JUMPDEST PUSH1 0x20 DUP3 ADD SWAP1 POP SWAP2 SWAP1 POP JUMP JUMPDEST PUSH1 0x0 PUSH2 0x2C37 PUSH1 0x2C DUP4 PUSH2 0x3334 JUMP JUMPDEST SWAP2 POP PUSH2 0x2C42 DUP3 PUSH2 0x3A21 JUMP JUMPDEST PUSH1 0x40 DUP3 ADD SWAP1 POP SWAP2 SWAP1 POP JUMP JUMPDEST PUSH1 0x0 PUSH2 0x2C5A PUSH1 0x38 DUP4 PUSH2 0x3334 JUMP JUMPDEST SWAP2 POP PUSH2 0x2C65 DUP3 PUSH2 0x3A70 JUMP JUMPDEST PUSH1 0x40 DUP3 ADD SWAP1 POP SWAP2 SWAP1 POP JUMP JUMPDEST PUSH1 0x0 PUSH2 0x2C7D PUSH1 0x2A DUP4 PUSH2 0x3334 JUMP JUMPDEST SWAP2 POP PUSH2 0x2C88 DUP3 PUSH2 0x3ABF JUMP JUMPDEST PUSH1 0x40 DUP3 ADD SWAP1 POP SWAP2 SWAP1 POP JUMP JUMPDEST PUSH1 0x0 PUSH2 0x2CA0 PUSH1 0x29 DUP4 PUSH2 0x3334 JUMP JUMPDEST SWAP2 POP PUSH2 0x2CAB DUP3 PUSH2 0x3B0E JUMP JUMPDEST PUSH1 0x40 DUP3 ADD SWAP1 POP SWAP2 SWAP1 POP JUMP JUMPDEST PUSH1 0x0 PUSH2 0x2CC3 PUSH1 0x2E DUP4 PUSH2 0x3334 JUMP JUMPDEST SWAP2 POP PUSH2 0x2CCE DUP3 PUSH2 0x3B5D JUMP JUMPDEST PUSH1 0x40 DUP3 ADD SWAP1 POP SWAP2 SWAP1 POP JUMP JUMPDEST PUSH1 0x0 PUSH2 0x2CE6 PUSH1 0x20 DUP4 PUSH2 0x3334 JUMP JUMPDEST SWAP2 POP PUSH2 0x2CF1 DUP3 PUSH2 0x3BAC JUMP JUMPDEST PUSH1 0x20 DUP3 ADD SWAP1 POP SWAP2 SWAP1 POP JUMP JUMPDEST PUSH1 0x0 PUSH2 0x2D09 PUSH1 0x31 DUP4 PUSH2 0x3334 JUMP JUMPDEST SWAP2 POP PUSH2 0x2D14 DUP3 PUSH2 0x3BD5 JUMP JUMPDEST PUSH1 0x40 DUP3 ADD SWAP1 POP SWAP2 SWAP1 POP JUMP JUMPDEST PUSH1 0x0 PUSH2 0x2D2C PUSH1 0x2C DUP4 PUSH2 0x3334 JUMP JUMPDEST SWAP2 POP PUSH2 0x2D37 DUP3 PUSH2 0x3C24 JUMP JUMPDEST PUSH1 0x40 DUP3 ADD SWAP1 POP SWAP2 SWAP1 POP JUMP JUMPDEST PUSH1 0x0 PUSH2 0x2D4F PUSH1 0x42 DUP4 PUSH2 0x3345 JUMP JUMPDEST SWAP2 POP PUSH2 0x2D5A DUP3 PUSH2 0x3C73 JUMP JUMPDEST PUSH1 0x42 DUP3 ADD SWAP1 POP SWAP2 SWAP1 POP JUMP JUMPDEST PUSH1 0x0 PUSH2 0x2D72 PUSH1 0x20 DUP4 PUSH2 0x3334 JUMP JUMPDEST SWAP2 POP PUSH2 0x2D7D DUP3 PUSH2 0x3CE8 JUMP JUMPDEST PUSH1 0x20 DUP3 ADD SWAP1 POP SWAP2 SWAP1 POP JUMP JUMPDEST PUSH1 0x0 PUSH2 0x2D95 PUSH1 0x6E DUP4 PUSH2 0x3345 JUMP JUMPDEST SWAP2 POP PUSH2 0x2DA0 DUP3 PUSH2 0x3D11 JUMP JUMPDEST PUSH1 0x6E DUP3 ADD SWAP1 POP SWAP2 SWAP1 POP JUMP JUMPDEST PUSH1 0x0 PUSH2 0x2DB8 PUSH1 0x2F DUP4 PUSH2 0x3334 JUMP JUMPDEST SWAP2 POP PUSH2 0x2DC3 DUP3 PUSH2 0x3DAC JUMP JUMPDEST PUSH1 0x40 DUP3 ADD SWAP1 POP SWAP2 SWAP1 POP JUMP JUMPDEST PUSH1 0x0 PUSH2 0x2DDB PUSH1 0x21 DUP4 PUSH2 0x3334 JUMP JUMPDEST SWAP2 POP PUSH2 0x2DE6 DUP3 PUSH2 0x3DFB JUMP JUMPDEST PUSH1 0x40 DUP3 ADD SWAP1 POP SWAP2 SWAP1 POP JUMP JUMPDEST PUSH1 0x0 PUSH2 0x2DFE PUSH1 0x1D DUP4 PUSH2 0x3345 JUMP JUMPDEST SWAP2 POP PUSH2 0x2E09 DUP3 PUSH2 0x3E4A JUMP JUMPDEST PUSH1 0x1D DUP3 ADD SWAP1 POP SWAP2 SWAP1 POP JUMP JUMPDEST PUSH1 0x0 PUSH2 0x2E21 PUSH1 0x31 DUP4 PUSH2 0x3334 JUMP JUMPDEST SWAP2 POP PUSH2 0x2E2C DUP3 PUSH2 0x3E73 JUMP JUMPDEST PUSH1 0x40 DUP3 ADD SWAP1 POP SWAP2 SWAP1 POP JUMP JUMPDEST PUSH1 0x0 PUSH2 0x2E44 PUSH1 0x34 DUP4 PUSH2 0x3345 JUMP JUMPDEST SWAP2 POP PUSH2 0x2E4F DUP3 PUSH2 0x3EC2 JUMP JUMPDEST PUSH1 0x34 DUP3 ADD SWAP1 POP SWAP2 SWAP1 POP JUMP JUMPDEST PUSH1 0x0 PUSH2 0x2E67 PUSH1 0x12 DUP4 PUSH2 0x3345 JUMP JUMPDEST SWAP2 POP PUSH2 0x2E72 DUP3 PUSH2 0x3F11 JUMP JUMPDEST PUSH1 0x12 DUP3 ADD SWAP1 POP SWAP2 SWAP1 POP JUMP JUMPDEST PUSH2 0x2E86 DUP2 PUSH2 0x34CF JUMP JUMPDEST DUP3 MSTORE POP POP JUMP JUMPDEST PUSH1 0x0 PUSH2 0x2E98 DUP3 DUP6 PUSH2 0x2A78 JUMP JUMPDEST SWAP2 POP PUSH2 0x2EA4 DUP3 DUP5 PUSH2 0x2A78 JUMP JUMPDEST SWAP2 POP DUP2 SWAP1 POP SWAP4 SWAP3 POP POP POP JUMP JUMPDEST PUSH1 0x0 PUSH2 0x2EBB DUP3 PUSH2 0x2DF1 JUMP JUMPDEST SWAP2 POP PUSH2 0x2EC7 DUP3 DUP5 PUSH2 0x2A78 JUMP JUMPDEST SWAP2 POP DUP2 SWAP1 POP SWAP3 SWAP2 POP POP JUMP JUMPDEST PUSH1 0x0 PUSH2 0x2EDD DUP3 PUSH2 0x2E5A JUMP JUMPDEST SWAP2 POP PUSH2 0x2EE9 DUP3 DUP5 PUSH2 0x2A78 JUMP JUMPDEST SWAP2 POP PUSH2 0x2EF4 DUP3 PUSH2 0x2E37 JUMP JUMPDEST SWAP2 POP PUSH2 0x2EFF DUP3 PUSH2 0x2B9E JUMP JUMPDEST SWAP2 POP PUSH2 0x2F0A DUP3 PUSH2 0x2B35 JUMP JUMPDEST SWAP2 POP DUP2 SWAP1 POP SWAP3 SWAP2 POP POP JUMP JUMPDEST PUSH1 0x0 PUSH2 0x2F20 DUP3 PUSH2 0x2E5A JUMP JUMPDEST SWAP2 POP PUSH2 0x2F2C DUP3 DUP5 PUSH2 0x2A78 JUMP JUMPDEST SWAP2 POP PUSH2 0x2F37 DUP3 PUSH2 0x2E37 JUMP JUMPDEST SWAP2 POP PUSH2 0x2F42 DUP3 PUSH2 0x2D88 JUMP JUMPDEST SWAP2 POP PUSH2 0x2F4D DUP3 PUSH2 0x2D42 JUMP JUMPDEST SWAP2 POP DUP2 SWAP1 POP SWAP3 SWAP2 POP POP JUMP JUMPDEST PUSH1 0x0 PUSH1 0x20 DUP3 ADD SWAP1 POP PUSH2 0x2F6D PUSH1 0x0 DUP4 ADD DUP5 PUSH2 0x29E8 JUMP JUMPDEST SWAP3 SWAP2 POP POP JUMP JUMPDEST PUSH1 0x0 PUSH1 0x80 DUP3 ADD SWAP1 POP PUSH2 0x2F88 PUSH1 0x0 DUP4 ADD DUP8 PUSH2 0x29E8 JUMP JUMPDEST PUSH2 0x2F95 PUSH1 0x20 DUP4 ADD DUP7 PUSH2 0x29E8 JUMP JUMPDEST PUSH2 0x2FA2 PUSH1 0x40 DUP4 ADD DUP6 PUSH2 0x2E7D JUMP JUMPDEST DUP2 DUP2 SUB PUSH1 0x60 DUP4 ADD MSTORE PUSH2 0x2FB4 DUP2 DUP5 PUSH2 0x2A06 JUMP JUMPDEST SWAP1 POP SWAP6 SWAP5 POP POP POP POP POP JUMP JUMPDEST PUSH1 0x0 PUSH1 0x20 DUP3 ADD SWAP1 POP PUSH2 0x2FD4 PUSH1 0x0 DUP4 ADD DUP5 PUSH2 0x29F7 JUMP JUMPDEST SWAP3 SWAP2 POP POP JUMP JUMPDEST PUSH1 0x0 PUSH1 0x20 DUP3 ADD SWAP1 POP DUP2 DUP2 SUB PUSH1 0x0 DUP4 ADD MSTORE PUSH2 0x2FF4 DUP2 DUP5 PUSH2 0x2A3F JUMP JUMPDEST SWAP1 POP SWAP3 SWAP2 POP POP JUMP JUMPDEST PUSH1 0x0 PUSH1 0x20 DUP3 ADD SWAP1 POP DUP2 DUP2 SUB PUSH1 0x0 DUP4 ADD MSTORE PUSH2 0x3015 DUP2 PUSH2 0x2AA9 JUMP JUMPDEST SWAP1 POP SWAP2 SWAP1 POP JUMP JUMPDEST PUSH1 0x0 PUSH1 0x20 DUP3 ADD SWAP1 POP DUP2 DUP2 SUB PUSH1 0x0 DUP4 ADD MSTORE PUSH2 0x3035 DUP2 PUSH2 0x2ACC JUMP JUMPDEST SWAP1 POP SWAP2 SWAP1 POP JUMP JUMPDEST PUSH1 0x0 PUSH1 0x20 DUP3 ADD SWAP1 POP DUP2 DUP2 SUB PUSH1 0x0 DUP4 ADD MSTORE PUSH2 0x3055 DUP2 PUSH2 0x2AEF JUMP JUMPDEST SWAP1 POP SWAP2 SWAP1 POP JUMP JUMPDEST PUSH1 0x0 PUSH1 0x20 DUP3 ADD SWAP1 POP DUP2 DUP2 SUB PUSH1 0x0 DUP4 ADD MSTORE PUSH2 0x3075 DUP2 PUSH2 0x2B12 JUMP JUMPDEST SWAP1 POP SWAP2 SWAP1 POP JUMP JUMPDEST PUSH1 0x0 PUSH1 0x20 DUP3 ADD SWAP1 POP DUP2 DUP2 SUB PUSH1 0x0 DUP4 ADD MSTORE PUSH2 0x3095 DUP2 PUSH2 0x2B58 JUMP JUMPDEST SWAP1 POP SWAP2 SWAP1 POP JUMP JUMPDEST PUSH1 0x0 PUSH1 0x20 DUP3 ADD SWAP1 POP DUP2 DUP2 SUB PUSH1 0x0 DUP4 ADD MSTORE PUSH2 0x30B5 DUP2 PUSH2 0x2B7B JUMP JUMPDEST SWAP1 POP SWAP2 SWAP1 POP JUMP JUMPDEST PUSH1 0x0 PUSH1 0x20 DUP3 ADD SWAP1 POP DUP2 DUP2 SUB PUSH1 0x0 DUP4 ADD MSTORE PUSH2 0x30D5 DUP2 PUSH2 0x2BC1 JUMP JUMPDEST SWAP1 POP SWAP2 SWAP1 POP JUMP JUMPDEST PUSH1 0x0 PUSH1 0x20 DUP3 ADD SWAP1 POP DUP2 DUP2 SUB PUSH1 0x0 DUP4 ADD MSTORE PUSH2 0x30F5 DUP2 PUSH2 0x2BE4 JUMP JUMPDEST SWAP1 POP SWAP2 SWAP1 POP JUMP JUMPDEST PUSH1 0x0 PUSH1 0x20 DUP3 ADD SWAP1 POP DUP2 DUP2 SUB PUSH1 0x0 DUP4 ADD MSTORE PUSH2 0x3115 DUP2 PUSH2 0x2C07 JUMP JUMPDEST SWAP1 POP SWAP2 SWAP1 POP JUMP JUMPDEST PUSH1 0x0 PUSH1 0x20 DUP3 ADD SWAP1 POP DUP2 DUP2 SUB PUSH1 0x0 DUP4 ADD MSTORE PUSH2 0x3135 DUP2 PUSH2 0x2C2A JUMP JUMPDEST SWAP1 POP SWAP2 SWAP1 POP JUMP JUMPDEST PUSH1 0x0 PUSH1 0x20 DUP3 ADD SWAP1 POP DUP2 DUP2 SUB PUSH1 0x0 DUP4 ADD MSTORE PUSH2 0x3155 DUP2 PUSH2 0x2C4D JUMP JUMPDEST SWAP1 POP SWAP2 SWAP1 POP JUMP JUMPDEST PUSH1 0x0 PUSH1 0x20 DUP3 ADD SWAP1 POP DUP2 DUP2 SUB PUSH1 0x0 DUP4 ADD MSTORE PUSH2 0x3175 DUP2 PUSH2 0x2C70 JUMP JUMPDEST SWAP1 POP SWAP2 SWAP1 POP JUMP JUMPDEST PUSH1 0x0 PUSH1 0x20 DUP3 ADD SWAP1 POP DUP2 DUP2 SUB PUSH1 0x0 DUP4 ADD MSTORE PUSH2 0x3195 DUP2 PUSH2 0x2C93 JUMP JUMPDEST SWAP1 POP SWAP2 SWAP1 POP JUMP JUMPDEST PUSH1 0x0 PUSH1 0x20 DUP3 ADD SWAP1 POP DUP2 DUP2 SUB PUSH1 0x0 DUP4 ADD MSTORE PUSH2 0x31B5 DUP2 PUSH2 0x2CB6 JUMP JUMPDEST SWAP1 POP SWAP2 SWAP1 POP JUMP JUMPDEST PUSH1 0x0 PUSH1 0x20 DUP3 ADD SWAP1 POP DUP2 DUP2 SUB PUSH1 0x0 DUP4 ADD MSTORE PUSH2 0x31D5 DUP2 PUSH2 0x2CD9 JUMP JUMPDEST SWAP1 POP SWAP2 SWAP1 POP JUMP JUMPDEST PUSH1 0x0 PUSH1 0x20 DUP3 ADD SWAP1 POP DUP2 DUP2 SUB PUSH1 0x0 DUP4 ADD MSTORE PUSH2 0x31F5 DUP2 PUSH2 0x2CFC JUMP JUMPDEST SWAP1 POP SWAP2 SWAP1 POP JUMP JUMPDEST PUSH1 0x0 PUSH1 0x20 DUP3 ADD SWAP1 POP DUP2 DUP2 SUB PUSH1 0x0 DUP4 ADD MSTORE PUSH2 0x3215 DUP2 PUSH2 0x2D1F JUMP JUMPDEST SWAP1 POP SWAP2 SWAP1 POP JUMP JUMPDEST PUSH1 0x0 PUSH1 0x20 DUP3 ADD SWAP1 POP DUP2 DUP2 SUB PUSH1 0x0 DUP4 ADD MSTORE PUSH2 0x3235 DUP2 PUSH2 0x2D65 JUMP JUMPDEST SWAP1 POP SWAP2 SWAP1 POP JUMP JUMPDEST PUSH1 0x0 PUSH1 0x20 DUP3 ADD SWAP1 POP DUP2 DUP2 SUB PUSH1 0x0 DUP4 ADD MSTORE PUSH2 0x3255 DUP2 PUSH2 0x2DAB JUMP JUMPDEST SWAP1 POP SWAP2 SWAP1 POP JUMP JUMPDEST PUSH1 0x0 PUSH1 0x20 DUP3 ADD SWAP1 POP DUP2 DUP2 SUB PUSH1 0x0 DUP4 ADD MSTORE PUSH2 0x3275 DUP2 PUSH2 0x2DCE JUMP JUMPDEST SWAP1 POP SWAP2 SWAP1 POP JUMP JUMPDEST PUSH1 0x0 PUSH1 0x20 DUP3 ADD SWAP1 POP DUP2 DUP2 SUB PUSH1 0x0 DUP4 ADD MSTORE PUSH2 0x3295 DUP2 PUSH2 0x2E14 JUMP JUMPDEST SWAP1 POP SWAP2 SWAP1 POP JUMP JUMPDEST PUSH1 0x0 PUSH1 0x20 DUP3 ADD SWAP1 POP PUSH2 0x32B1 PUSH1 0x0 DUP4 ADD DUP5 PUSH2 0x2E7D JUMP JUMPDEST SWAP3 SWAP2 POP POP JUMP JUMPDEST PUSH1 0x0 PUSH2 0x32C1 PUSH2 0x32D2 JUMP JUMPDEST SWAP1 POP PUSH2 0x32CD DUP3 DUP3 PUSH2 0x354D JUMP JUMPDEST SWAP2 SWAP1 POP JUMP JUMPDEST PUSH1 0x0 PUSH1 0x40 MLOAD SWAP1 POP SWAP1 JUMP JUMPDEST PUSH1 0x0 PUSH8 0xFFFFFFFFFFFFFFFF DUP3 GT ISZERO PUSH2 0x32F7 JUMPI PUSH2 0x32F6 PUSH2 0x36B4 JUMP JUMPDEST JUMPDEST PUSH2 0x3300 DUP3 PUSH2 0x36F7 JUMP JUMPDEST SWAP1 POP PUSH1 0x20 DUP2 ADD SWAP1 POP SWAP2 SWAP1 POP JUMP JUMPDEST PUSH1 0x0 DUP2 MLOAD SWAP1 POP SWAP2 SWAP1 POP JUMP JUMPDEST PUSH1 0x0 DUP2 MLOAD SWAP1 POP SWAP2 SWAP1 POP JUMP JUMPDEST PUSH1 0x0 DUP3 DUP3 MSTORE PUSH1 0x20 DUP3 ADD SWAP1 POP SWAP3 SWAP2 POP POP JUMP JUMPDEST PUSH1 0x0 DUP3 DUP3 MSTORE PUSH1 0x20 DUP3 ADD SWAP1 POP SWAP3 SWAP2 POP POP JUMP JUMPDEST PUSH1 0x0 DUP2 SWAP1 POP SWAP3 SWAP2 POP POP JUMP JUMPDEST PUSH1 0x0 PUSH2 0x335B DUP3 PUSH2 0x34CF JUMP JUMPDEST SWAP2 POP PUSH2 0x3366 DUP4 PUSH2 0x34CF JUMP JUMPDEST SWAP3 POP DUP3 PUSH32 0xFFFFFFFFFFFFFFFFFFFFFFFFFFFFFFFFFFFFFFFFFFFFFFFFFFFFFFFFFFFFFFFF SUB DUP3 GT ISZERO PUSH2 0x339B JUMPI PUSH2 0x339A PUSH2 0x35F8 JUMP JUMPDEST JUMPDEST DUP3 DUP3 ADD SWAP1 POP SWAP3 SWAP2 POP POP JUMP JUMPDEST PUSH1 0x0 PUSH2 0x33B1 DUP3 PUSH2 0x34CF JUMP JUMPDEST SWAP2 POP PUSH2 0x33BC DUP4 PUSH2 0x34CF JUMP JUMPDEST SWAP3 POP DUP3 PUSH2 0x33CC JUMPI PUSH2 0x33CB PUSH2 0x3627 JUMP JUMPDEST JUMPDEST DUP3 DUP3 DIV SWAP1 POP SWAP3 SWAP2 POP POP JUMP JUMPDEST PUSH1 0x0 PUSH2 0x33E2 DUP3 PUSH2 0x34CF JUMP JUMPDEST SWAP2 POP PUSH2 0x33ED DUP4 PUSH2 0x34CF JUMP JUMPDEST SWAP3 POP DUP2 PUSH32 0xFFFFFFFFFFFFFFFFFFFFFFFFFFFFFFFFFFFFFFFFFFFFFFFFFFFFFFFFFFFFFFFF DIV DUP4 GT DUP3 ISZERO ISZERO AND ISZERO PUSH2 0x3426 JUMPI PUSH2 0x3425 PUSH2 0x35F8 JUMP JUMPDEST JUMPDEST DUP3 DUP3 MUL SWAP1 POP SWAP3 SWAP2 POP POP JUMP JUMPDEST PUSH1 0x0 PUSH2 0x343C DUP3 PUSH2 0x34CF JUMP JUMPDEST SWAP2 POP PUSH2 0x3447 DUP4 PUSH2 0x34CF JUMP JUMPDEST SWAP3 POP DUP3 DUP3 LT ISZERO PUSH2 0x345A JUMPI PUSH2 0x3459 PUSH2 0x35F8 JUMP JUMPDEST JUMPDEST DUP3 DUP3 SUB SWAP1 POP SWAP3 SWAP2 POP POP JUMP JUMPDEST PUSH1 0x0 PUSH2 0x3470 DUP3 PUSH2 0x34AF JUMP JUMPDEST SWAP1 POP SWAP2 SWAP1 POP JUMP JUMPDEST PUSH1 0x0 DUP2 ISZERO ISZERO SWAP1 POP SWAP2 SWAP1 POP JUMP JUMPDEST PUSH1 0x0 PUSH32 0xFFFFFFFF00000000000000000000000000000000000000000000000000000000 DUP3 AND SWAP1 POP SWAP2 SWAP1 POP JUMP JUMPDEST PUSH1 0x0 PUSH20 0xFFFFFFFFFFFFFFFFFFFFFFFFFFFFFFFFFFFFFFFF DUP3 AND SWAP1 POP SWAP2 SWAP1 POP JUMP JUMPDEST PUSH1 0x0 DUP2 SWAP1 POP SWAP2 SWAP1 POP JUMP JUMPDEST DUP3 DUP2 DUP4 CALLDATACOPY PUSH1 0x0 DUP4 DUP4 ADD MSTORE POP POP POP JUMP JUMPDEST PUSH1 0x0 JUMPDEST DUP4 DUP2 LT ISZERO PUSH2 0x3506 JUMPI DUP1 DUP3 ADD MLOAD DUP2 DUP5 ADD MSTORE PUSH1 0x20 DUP2 ADD SWAP1 POP PUSH2 0x34EB JUMP JUMPDEST DUP4 DUP2 GT ISZERO PUSH2 0x3515 JUMPI PUSH1 0x0 DUP5 DUP5 ADD MSTORE JUMPDEST POP POP POP POP JUMP JUMPDEST PUSH1 0x0 PUSH1 0x2 DUP3 DIV SWAP1 POP PUSH1 0x1 DUP3 AND DUP1 PUSH2 0x3533 JUMPI PUSH1 0x7F DUP3 AND SWAP2 POP JUMPDEST PUSH1 0x20 DUP3 LT DUP2 EQ ISZERO PUSH2 0x3547 JUMPI PUSH2 0x3546 PUSH2 0x3656 JUMP JUMPDEST JUMPDEST POP SWAP2 SWAP1 POP JUMP JUMPDEST PUSH2 0x3556 DUP3 PUSH2 0x36F7 JUMP JUMPDEST DUP2 ADD DUP2 DUP2 LT PUSH8 0xFFFFFFFFFFFFFFFF DUP3 GT OR ISZERO PUSH2 0x3575 JUMPI PUSH2 0x3574 PUSH2 0x36B4 JUMP JUMPDEST JUMPDEST DUP1 PUSH1 0x40 MSTORE POP POP POP JUMP JUMPDEST PUSH1 0x0 PUSH2 0x3589 DUP3 PUSH2 0x34CF JUMP JUMPDEST SWAP2 POP PUSH32 0xFFFFFFFFFFFFFFFFFFFFFFFFFFFFFFFFFFFFFFFFFFFFFFFFFFFFFFFFFFFFFFFF DUP3 EQ ISZERO PUSH2 0x35BC JUMPI PUSH2 0x35BB PUSH2 0x35F8 JUMP JUMPDEST JUMPDEST PUSH1 0x1 DUP3 ADD SWAP1 POP SWAP2 SWAP1 POP JUMP JUMPDEST PUSH1 0x0 PUSH2 0x35D2 DUP3 PUSH2 0x34CF JUMP JUMPDEST SWAP2 POP PUSH2 0x35DD DUP4 PUSH2 0x34CF JUMP JUMPDEST SWAP3 POP DUP3 PUSH2 0x35ED JUMPI PUSH2 0x35EC PUSH2 0x3627 JUMP JUMPDEST JUMPDEST DUP3 DUP3 MOD SWAP1 POP SWAP3 SWAP2 POP POP JUMP JUMPDEST PUSH32 0x4E487B7100000000000000000000000000000000000000000000000000000000 PUSH1 0x0 MSTORE PUSH1 0x11 PUSH1 0x4 MSTORE PUSH1 0x24 PUSH1 0x0 REVERT JUMPDEST PUSH32 0x4E487B7100000000000000000000000000000000000000000000000000000000 PUSH1 0x0 MSTORE PUSH1 0x12 PUSH1 0x4 MSTORE PUSH1 0x24 PUSH1 0x0 REVERT JUMPDEST PUSH32 0x4E487B7100000000000000000000000000000000000000000000000000000000 PUSH1 0x0 MSTORE PUSH1 0x22 PUSH1 0x4 MSTORE PUSH1 0x24 PUSH1 0x0 REVERT JUMPDEST PUSH32 0x4E487B7100000000000000000000000000000000000000000000000000000000 PUSH1 0x0 MSTORE PUSH1 0x32 PUSH1 0x4 MSTORE PUSH1 0x24 PUSH1 0x0 REVERT JUMPDEST PUSH32 0x4E487B7100000000000000000000000000000000000000000000000000000000 PUSH1 0x0 MSTORE PUSH1 0x41 PUSH1 0x4 MSTORE PUSH1 0x24 PUSH1 0x0 REVERT JUMPDEST PUSH1 0x0 DUP1 REVERT JUMPDEST PUSH1 0x0 DUP1 REVERT JUMPDEST PUSH1 0x0 DUP1 REVERT JUMPDEST PUSH1 0x0 DUP1 REVERT JUMPDEST PUSH1 0x0 PUSH1 0x1F NOT PUSH1 0x1F DUP4 ADD AND SWAP1 POP SWAP2 SWAP1 POP JUMP JUMPDEST PUSH32 0x5469636B65747320617265206E6F74206F6E2073616C65210000000000000000 PUSH1 0x0 DUP3 ADD MSTORE POP JUMP JUMPDEST PUSH32 0x4E6F7420656E6F75676820455448210000000000000000000000000000000000 PUSH1 0x0 DUP3 ADD MSTORE POP JUMP JUMPDEST PUSH32 0x4552433732313A207472616E7366657220746F206E6F6E204552433732315265 PUSH1 0x0 DUP3 ADD MSTORE PUSH32 0x63656976657220696D706C656D656E7465720000000000000000000000000000 PUSH1 0x20 DUP3 ADD MSTORE POP JUMP JUMPDEST PUSH32 0x4F776E61626C653A206E6577206F776E657220697320746865207A65726F2061 PUSH1 0x0 DUP3 ADD MSTORE PUSH32 0x6464726573730000000000000000000000000000000000000000000000000000 PUSH1 0x20 DUP3 ADD MSTORE POP JUMP JUMPDEST PUSH32 0x22696D616765223A2022697066733A2F2F516D54484E6B423356777541643763 PUSH1 0x0 DUP3 ADD MSTORE PUSH32 0x4C463176567A756D5831386F7366774C4C48694C6736515333366B6758506322 PUSH1 0x20 DUP3 ADD MSTORE PUSH32 0x207D000000000000000000000000000000000000000000000000000000000000 PUSH1 0x40 DUP3 ADD MSTORE POP JUMP JUMPDEST PUSH32 0x4552433732313A207472616E736665722066726F6D20696E636F727265637420 PUSH1 0x0 DUP3 ADD MSTORE PUSH32 0x6F776E6572000000000000000000000000000000000000000000000000000000 PUSH1 0x20 DUP3 ADD MSTORE POP JUMP JUMPDEST PUSH32 0x4552433732313A20746F6B656E20616C7265616479206D696E74656400000000 PUSH1 0x0 DUP3 ADD MSTORE POP JUMP JUMPDEST PUSH32 0x22747261697473223A205B7B202274726169745F74797065223A202243686563 PUSH1 0x0 DUP3 ADD MSTORE PUSH32 0x6B656420496E222C202276616C7565223A20227472756522207D2C207B202274 PUSH1 0x20 DUP3 ADD MSTORE PUSH32 0x726169745F74797065223A2022507572636861736564222C202276616C756522 PUSH1 0x40 DUP3 ADD MSTORE PUSH32 0x3A20227472756522207D5D2C2000000000000000000000000000000000000000 PUSH1 0x60 DUP3 ADD MSTORE POP JUMP JUMPDEST PUSH32 0x4552433732313A207472616E7366657220746F20746865207A65726F20616464 PUSH1 0x0 DUP3 ADD MSTORE PUSH32 0x7265737300000000000000000000000000000000000000000000000000000000 PUSH1 0x20 DUP3 ADD MSTORE POP JUMP JUMPDEST PUSH32 0x4552433732313A20617070726F766520746F2063616C6C657200000000000000 PUSH1 0x0 DUP3 ADD MSTORE POP JUMP JUMPDEST PUSH32 0x4E6F7420656E6F756768207469636B6574730000000000000000000000000000 PUSH1 0x0 DUP3 ADD MSTORE POP JUMP JUMPDEST PUSH32 0x4552433732313A206F70657261746F7220717565727920666F72206E6F6E6578 PUSH1 0x0 DUP3 ADD MSTORE PUSH32 0x697374656E7420746F6B656E0000000000000000000000000000000000000000 PUSH1 0x20 DUP3 ADD MSTORE POP JUMP JUMPDEST PUSH32 0x4552433732313A20617070726F76652063616C6C6572206973206E6F74206F77 PUSH1 0x0 DUP3 ADD MSTORE PUSH32 0x6E6572206E6F7220617070726F76656420666F7220616C6C0000000000000000 PUSH1 0x20 DUP3 ADD MSTORE POP JUMP JUMPDEST PUSH32 0x4552433732313A2062616C616E636520717565727920666F7220746865207A65 PUSH1 0x0 DUP3 ADD MSTORE PUSH32 0x726F206164647265737300000000000000000000000000000000000000000000 PUSH1 0x20 DUP3 ADD MSTORE POP JUMP JUMPDEST PUSH32 0x4552433732313A206F776E657220717565727920666F72206E6F6E6578697374 PUSH1 0x0 DUP3 ADD MSTORE PUSH32 0x656E7420746F6B656E0000000000000000000000000000000000000000000000 PUSH1 0x20 DUP3 ADD MSTORE POP JUMP JUMPDEST PUSH32 0x45524337323155524953746F726167653A2055524920736574206F66206E6F6E PUSH1 0x0 DUP3 ADD MSTORE PUSH32 0x6578697374656E7420746F6B656E000000000000000000000000000000000000 PUSH1 0x20 DUP3 ADD MSTORE POP JUMP JUMPDEST PUSH32 0x4552433732313A206D696E7420746F20746865207A65726F2061646472657373 PUSH1 0x0 DUP3 ADD MSTORE POP JUMP JUMPDEST PUSH32 0x45524337323155524953746F726167653A2055524920717565727920666F7220 PUSH1 0x0 DUP3 ADD MSTORE PUSH32 0x6E6F6E6578697374656E7420746F6B656E000000000000000000000000000000 PUSH1 0x20 DUP3 ADD MSTORE POP JUMP JUMPDEST PUSH32 0x4552433732313A20617070726F76656420717565727920666F72206E6F6E6578 PUSH1 0x0 DUP3 ADD MSTORE PUSH32 0x697374656E7420746F6B656E0000000000000000000000000000000000000000 PUSH1 0x20 DUP3 ADD MSTORE POP JUMP JUMPDEST PUSH32 0x22696D616765223A2022697066733A2F2F516D507755505148464B46765A6A6D PUSH1 0x0 DUP3 ADD MSTORE PUSH32 0x79743373616D435154507962326D72366D4E6F754D6338347857647946486A22 PUSH1 0x20 DUP3 ADD MSTORE PUSH32 0x207D000000000000000000000000000000000000000000000000000000000000 PUSH1 0x40 DUP3 ADD MSTORE POP JUMP JUMPDEST PUSH32 0x4F776E61626C653A2063616C6C6572206973206E6F7420746865206F776E6572 PUSH1 0x0 DUP3 ADD MSTORE POP JUMP JUMPDEST PUSH32 0x22747261697473223A205B7B202274726169745F74797065223A202243686563 PUSH1 0x0 DUP3 ADD MSTORE PUSH32 0x6B656420496E222C202276616C7565223A202266616C736522207D2C207B2022 PUSH1 0x20 DUP3 ADD MSTORE PUSH32 0x74726169745F74797065223A2022507572636861736564222C202276616C7565 PUSH1 0x40 DUP3 ADD MSTORE PUSH32 0x223A20227472756522207D5D2C20000000000000000000000000000000000000 PUSH1 0x60 DUP3 ADD MSTORE POP JUMP JUMPDEST PUSH32 0x4552433732314D657461646174613A2055524920717565727920666F72206E6F PUSH1 0x0 DUP3 ADD MSTORE PUSH32 0x6E6578697374656E7420746F6B656E0000000000000000000000000000000000 PUSH1 0x20 DUP3 ADD MSTORE POP JUMP JUMPDEST PUSH32 0x4552433732313A20617070726F76616C20746F2063757272656E74206F776E65 PUSH1 0x0 DUP3 ADD MSTORE PUSH32 0x7200000000000000000000000000000000000000000000000000000000000000 PUSH1 0x20 DUP3 ADD MSTORE POP JUMP JUMPDEST PUSH32 0x646174613A6170706C69636174696F6E2F6A736F6E3B6261736536342C000000 PUSH1 0x0 DUP3 ADD MSTORE POP JUMP JUMPDEST PUSH32 0x4552433732313A207472616E736665722063616C6C6572206973206E6F74206F PUSH1 0x0 DUP3 ADD MSTORE PUSH32 0x776E6572206E6F7220617070726F766564000000000000000000000000000000 PUSH1 0x20 DUP3 ADD MSTORE POP JUMP JUMPDEST PUSH32 0x222C20226465736372697074696F6E223A202241204E46542D706F7765726564 PUSH1 0x0 DUP3 ADD MSTORE PUSH32 0x207469636B6574696E672073797374656D222C20000000000000000000000000 PUSH1 0x20 DUP3 ADD MSTORE POP JUMP JUMPDEST PUSH32 0x7B20226E616D65223A20224E4654697820230000000000000000000000000000 PUSH1 0x0 DUP3 ADD MSTORE POP JUMP JUMPDEST PUSH2 0x3F43 DUP2 PUSH2 0x3465 JUMP JUMPDEST DUP2 EQ PUSH2 0x3F4E JUMPI PUSH1 0x0 DUP1 REVERT JUMPDEST POP JUMP JUMPDEST PUSH2 0x3F5A DUP2 PUSH2 0x3477 JUMP JUMPDEST DUP2 EQ PUSH2 0x3F65 JUMPI PUSH1 0x0 DUP1 REVERT JUMPDEST POP JUMP JUMPDEST PUSH2 0x3F71 DUP2 PUSH2 0x3483 JUMP JUMPDEST DUP2 EQ PUSH2 0x3F7C JUMPI PUSH1 0x0 DUP1 REVERT JUMPDEST POP JUMP JUMPDEST PUSH2 0x3F88 DUP2 PUSH2 0x34CF JUMP JUMPDEST DUP2 EQ PUSH2 0x3F93 JUMPI PUSH1 0x0 DUP1 REVERT JUMPDEST POP JUMP INVALID COINBASE TIMESTAMP NUMBER DIFFICULTY GASLIMIT CHAINID SELFBALANCE BASEFEE 0x49 0x4A 0x4B 0x4C 0x4D 0x4E 0x4F POP MLOAD MSTORE MSTORE8 SLOAD SSTORE JUMP JUMPI PC MSIZE GAS PUSH2 0x6263 PUSH5 0x6566676869 PUSH11 0x6B6C6D6E6F707172737475 PUSH23 0x7778797A303132333435363738392B2FA2646970667358 0x22 SLT KECCAK256 0x1F 0x2E 0xED DUP16 0xC1 0xA7 GASLIMIT 0x2E DUP9 GT PUSH7 0xB5C5B96114C98C SWAP7 BLOCKHASH PUSH2 0xEF29 0x5C 0xD4 0xA6 0xFC PUSH1 0xEF DUP11 DUP15 0xB5 PUSH5 0x736F6C6343 STOP ADDMOD SMOD STOP CALLER "
		},
		"gasEstimates": {
			"creation": {
				"codeDepositCost": "3279200",
				"executionCost": "infinite",
				"totalCost": "infinite"
			},
			"external": {
				"approve(address,uint256)": "infinite",
				"availableTicketCount()": "2482",
				"availableTickets()": "2519",
				"balanceOf(address)": "2925",
				"checkIn(address)": "infinite",
				"checkIns(address)": "2891",
				"closeSale()": "26739",
				"confirmOwnership(address)": "2951",
				"getApproved(uint256)": "5251",
				"holderTokenIDs(address,uint256)": "infinite",
				"isApprovedForAll(address,address)": "infinite",
				"mint()": "infinite",
				"mintPrice()": "2540",
				"name()": "infinite",
				"openSale()": "26763",
				"owner()": "2589",
				"ownerOf(uint256)": "3066",
				"renounceOwnership()": "30442",
				"safeTransferFrom(address,address,uint256)": "infinite",
				"safeTransferFrom(address,address,uint256,bytes)": "infinite",
				"saleIsActive()": "2537",
				"setApprovalForAll(address,bool)": "infinite",
				"supportsInterface(bytes4)": "820",
				"symbol()": "infinite",
				"tokenURI(uint256)": "infinite",
				"totalTicketCount()": "2527",
				"totalTickets()": "2540",
				"transferFrom(address,address,uint256)": "infinite",
				"transferOwnership(address)": "30833"
			}
		},
		"methodIdentifiers": {
			"approve(address,uint256)": "095ea7b3",
			"availableTicketCount()": "3d721ecd",
			"availableTickets()": "3cfa7e01",
			"balanceOf(address)": "70a08231",
			"checkIn(address)": "d9a59e33",
			"checkIns(address)": "1acc9b62",
			"closeSale()": "ee55efee",
			"confirmOwnership(address)": "80f2abe3",
			"getApproved(uint256)": "081812fc",
			"holderTokenIDs(address,uint256)": "82ac0bb8",
			"isApprovedForAll(address,address)": "e985e9c5",
			"mint()": "1249c58b",
			"mintPrice()": "6817c76c",
			"name()": "06fdde03",
			"openSale()": "167ff46f",
			"owner()": "8da5cb5b",
			"ownerOf(uint256)": "6352211e",
			"renounceOwnership()": "715018a6",
			"safeTransferFrom(address,address,uint256)": "42842e0e",
			"safeTransferFrom(address,address,uint256,bytes)": "b88d4fde",
			"saleIsActive()": "eb8d2444",
			"setApprovalForAll(address,bool)": "a22cb465",
			"supportsInterface(bytes4)": "01ffc9a7",
			"symbol()": "95d89b41",
			"tokenURI(uint256)": "c87b56dd",
			"totalTicketCount()": "14558fab",
			"totalTickets()": "dd11247e",
			"transferFrom(address,address,uint256)": "23b872dd",
			"transferOwnership(address)": "f2fde38b"
		}
	},
	"abi": [
		{
			"inputs": [],
			"stateMutability": "nonpayable",
			"type": "constructor"
		},
		{
			"anonymous": false,
			"inputs": [
				{
					"indexed": true,
					"internalType": "address",
					"name": "owner",
					"type": "address"
				},
				{
					"indexed": true,
					"internalType": "address",
					"name": "approved",
					"type": "address"
				},
				{
					"indexed": true,
					"internalType": "uint256",
					"name": "tokenId",
					"type": "uint256"
				}
			],
			"name": "Approval",
			"type": "event"
		},
		{
			"anonymous": false,
			"inputs": [
				{
					"indexed": true,
					"internalType": "address",
					"name": "owner",
					"type": "address"
				},
				{
					"indexed": true,
					"internalType": "address",
					"name": "operator",
					"type": "address"
				},
				{
					"indexed": false,
					"internalType": "bool",
					"name": "approved",
					"type": "bool"
				}
			],
			"name": "ApprovalForAll",
			"type": "event"
		},
		{
			"anonymous": false,
			"inputs": [
				{
					"indexed": true,
					"internalType": "address",
					"name": "previousOwner",
					"type": "address"
				},
				{
					"indexed": true,
					"internalType": "address",
					"name": "newOwner",
					"type": "address"
				}
			],
			"name": "OwnershipTransferred",
			"type": "event"
		},
		{
			"anonymous": false,
			"inputs": [
				{
					"indexed": true,
					"internalType": "address",
					"name": "from",
					"type": "address"
				},
				{
					"indexed": true,
					"internalType": "address",
					"name": "to",
					"type": "address"
				},
				{
					"indexed": true,
					"internalType": "uint256",
					"name": "tokenId",
					"type": "uint256"
				}
			],
			"name": "Transfer",
			"type": "event"
		},
		{
			"inputs": [
				{
					"internalType": "address",
					"name": "to",
					"type": "address"
				},
				{
					"internalType": "uint256",
					"name": "tokenId",
					"type": "uint256"
				}
			],
			"name": "approve",
			"outputs": [],
			"stateMutability": "nonpayable",
			"type": "function"
		},
		{
			"inputs": [],
			"name": "availableTicketCount",
			"outputs": [
				{
					"internalType": "uint256",
					"name": "",
					"type": "uint256"
				}
			],
			"stateMutability": "view",
			"type": "function"
		},
		{
			"inputs": [],
			"name": "availableTickets",
			"outputs": [
				{
					"internalType": "uint256",
					"name": "",
					"type": "uint256"
				}
			],
			"stateMutability": "view",
			"type": "function"
		},
		{
			"inputs": [
				{
					"internalType": "address",
					"name": "owner",
					"type": "address"
				}
			],
			"name": "balanceOf",
			"outputs": [
				{
					"internalType": "uint256",
					"name": "",
					"type": "uint256"
				}
			],
			"stateMutability": "view",
			"type": "function"
		},
		{
			"inputs": [
				{
					"internalType": "address",
					"name": "addy",
					"type": "address"
				}
			],
			"name": "checkIn",
			"outputs": [],
			"stateMutability": "nonpayable",
			"type": "function"
		},
		{
			"inputs": [
				{
					"internalType": "address",
					"name": "",
					"type": "address"
				}
			],
			"name": "checkIns",
			"outputs": [
				{
					"internalType": "bool",
					"name": "",
					"type": "bool"
				}
			],
			"stateMutability": "view",
			"type": "function"
		},
		{
			"inputs": [],
			"name": "closeSale",
			"outputs": [],
			"stateMutability": "nonpayable",
			"type": "function"
		},
		{
			"inputs": [
				{
					"internalType": "address",
					"name": "addy",
					"type": "address"
				}
			],
			"name": "confirmOwnership",
			"outputs": [
				{
					"internalType": "bool",
					"name": "",
					"type": "bool"
				}
			],
			"stateMutability": "view",
			"type": "function"
		},
		{
			"inputs": [
				{
					"internalType": "uint256",
					"name": "tokenId",
					"type": "uint256"
				}
			],
			"name": "getApproved",
			"outputs": [
				{
					"internalType": "address",
					"name": "",
					"type": "address"
				}
			],
			"stateMutability": "view",
			"type": "function"
		},
		{
			"inputs": [
				{
					"internalType": "address",
					"name": "",
					"type": "address"
				},
				{
					"internalType": "uint256",
					"name": "",
					"type": "uint256"
				}
			],
			"name": "holderTokenIDs",
			"outputs": [
				{
					"internalType": "uint256",
					"name": "",
					"type": "uint256"
				}
			],
			"stateMutability": "view",
			"type": "function"
		},
		{
			"inputs": [
				{
					"internalType": "address",
					"name": "owner",
					"type": "address"
				},
				{
					"internalType": "address",
					"name": "operator",
					"type": "address"
				}
			],
			"name": "isApprovedForAll",
			"outputs": [
				{
					"internalType": "bool",
					"name": "",
					"type": "bool"
				}
			],
			"stateMutability": "view",
			"type": "function"
		},
		{
			"inputs": [],
			"name": "mint",
			"outputs": [],
			"stateMutability": "payable",
			"type": "function"
		},
		{
			"inputs": [],
			"name": "mintPrice",
			"outputs": [
				{
					"internalType": "uint256",
					"name": "",
					"type": "uint256"
				}
			],
			"stateMutability": "view",
			"type": "function"
		},
		{
			"inputs": [],
			"name": "name",
			"outputs": [
				{
					"internalType": "string",
					"name": "",
					"type": "string"
				}
			],
			"stateMutability": "view",
			"type": "function"
		},
		{
			"inputs": [],
			"name": "openSale",
			"outputs": [],
			"stateMutability": "nonpayable",
			"type": "function"
		},
		{
			"inputs": [],
			"name": "owner",
			"outputs": [
				{
					"internalType": "address",
					"name": "",
					"type": "address"
				}
			],
			"stateMutability": "view",
			"type": "function"
		},
		{
			"inputs": [
				{
					"internalType": "uint256",
					"name": "tokenId",
					"type": "uint256"
				}
			],
			"name": "ownerOf",
			"outputs": [
				{
					"internalType": "address",
					"name": "",
					"type": "address"
				}
			],
			"stateMutability": "view",
			"type": "function"
		},
		{
			"inputs": [],
			"name": "renounceOwnership",
			"outputs": [],
			"stateMutability": "nonpayable",
			"type": "function"
		},
		{
			"inputs": [
				{
					"internalType": "address",
					"name": "from",
					"type": "address"
				},
				{
					"internalType": "address",
					"name": "to",
					"type": "address"
				},
				{
					"internalType": "uint256",
					"name": "tokenId",
					"type": "uint256"
				}
			],
			"name": "safeTransferFrom",
			"outputs": [],
			"stateMutability": "nonpayable",
			"type": "function"
		},
		{
			"inputs": [
				{
					"internalType": "address",
					"name": "from",
					"type": "address"
				},
				{
					"internalType": "address",
					"name": "to",
					"type": "address"
				},
				{
					"internalType": "uint256",
					"name": "tokenId",
					"type": "uint256"
				},
				{
					"internalType": "bytes",
					"name": "_data",
					"type": "bytes"
				}
			],
			"name": "safeTransferFrom",
			"outputs": [],
			"stateMutability": "nonpayable",
			"type": "function"
		},
		{
			"inputs": [],
			"name": "saleIsActive",
			"outputs": [
				{
					"internalType": "bool",
					"name": "",
					"type": "bool"
				}
			],
			"stateMutability": "view",
			"type": "function"
		},
		{
			"inputs": [
				{
					"internalType": "address",
					"name": "operator",
					"type": "address"
				},
				{
					"internalType": "bool",
					"name": "approved",
					"type": "bool"
				}
			],
			"name": "setApprovalForAll",
			"outputs": [],
			"stateMutability": "nonpayable",
			"type": "function"
		},
		{
			"inputs": [
				{
					"internalType": "bytes4",
					"name": "interfaceId",
					"type": "bytes4"
				}
			],
			"name": "supportsInterface",
			"outputs": [
				{
					"internalType": "bool",
					"name": "",
					"type": "bool"
				}
			],
			"stateMutability": "view",
			"type": "function"
		},
		{
			"inputs": [],
			"name": "symbol",
			"outputs": [
				{
					"internalType": "string",
					"name": "",
					"type": "string"
				}
			],
			"stateMutability": "view",
			"type": "function"
		},
		{
			"inputs": [
				{
					"internalType": "uint256",
					"name": "tokenId",
					"type": "uint256"
				}
			],
			"name": "tokenURI",
			"outputs": [
				{
					"internalType": "string",
					"name": "",
					"type": "string"
				}
			],
			"stateMutability": "view",
			"type": "function"
		},
		{
			"inputs": [],
			"name": "totalTicketCount",
			"outputs": [
				{
					"internalType": "uint256",
					"name": "",
					"type": "uint256"
				}
			],
			"stateMutability": "view",
			"type": "function"
		},
		{
			"inputs": [],
			"name": "totalTickets",
			"outputs": [
				{
					"internalType": "uint256",
					"name": "",
					"type": "uint256"
				}
			],
			"stateMutability": "view",
			"type": "function"
		},
		{
			"inputs": [
				{
					"internalType": "address",
					"name": "from",
					"type": "address"
				},
				{
					"internalType": "address",
					"name": "to",
					"type": "address"
				},
				{
					"internalType": "uint256",
					"name": "tokenId",
					"type": "uint256"
				}
			],
			"name": "transferFrom",
			"outputs": [],
			"stateMutability": "nonpayable",
			"type": "function"
		},
		{
			"inputs": [
				{
					"internalType": "address",
					"name": "newOwner",
					"type": "address"
				}
			],
			"name": "transferOwnership",
			"outputs": [],
			"stateMutability": "nonpayable",
			"type": "function"
		}
	]
}